:020000040800F2
:100000003805002001010008691B0008FF180008DE
:10001000651B00086D0100088B1F00080000000030
:10002000000000000000000000000000D11B0008DC
:10003000AD01000800000000A51B0008D31B00084C
:100040001B0100081B0100081B0100081B01000820
:100050001B0100081B0100081B0100081B01000810
:100060001B0100081B0100081B0100081B01000800
:100070001B0100081B0100081B0100081B010008F0
:10008000710100081B0100081B0100081B0100088A
:100090001B0100081B0100081B0100081B010008D0
:1000A0001B0100081B0100081B0100081B010008C0
:1000B000C91C0008D91C0008E91C00081B01000825
:1000C0001B0100081B0100081B0100081B010008A0
:1000D0001B0100081B0100081B0100081B01000890
:1000E0001B0100081B0100081B010008DFF80CD0F1
:1000F00000F02AF800480047C51F00083805002016
:100100000648804706480047FEE7FEE7FEE7FEE7B1
:10011000FEE7FEE7FEE7FEE7FEE7FEE7711C0008EC
:10012000ED000008D2B201E000F8012B491EFBD21D
:1001300070470022F6E710B513460A4604461946F2
:10014000FFF7F0FF204610BD064C074D06E0E068C3
:1001500040F0010394E8070098471034AC42F6D30E
:10016000FFF7C8FF602000088020000800BFFEE7FE
:1001700010B5024800F01CF810BD0000E00000209F
:1001800030B590F840500124AC40C56B6C600468F9
:1001900063604468102C04D10468A2600468E160C4
:1001A00003E00468A1600468E26030BD70470000AD
:1001B00070B50446E06B05682068066894F8401046
:1001C000042088402840002846D006F0040000287B
:1001D00042D02068006800F0200028B9206800683C
:1001E00020F004002168086057492068884201D146
:1001F000042027E0544914312068884201D140206E
:1002000020E0514928312068884201D1001519E0C9
:100210004D493C312068884202D14FF4804011E0C2
:10022000494950312068884202D14FF4802009E0CA
:10023000454964312068884202D14FF4800001E0D2
:100240004FF08060404908394860E06A00287AD061
:100250002046E16A884776E094F840100220884002
:100260002840A0B306F0020088B32068006800F0C0
:10027000200040B92068006820F00A00216808606A
:10028000012084F8210030492068884201D10220F1
:1002900028E02D4914312068884201D1202021E036
:1002A000294928312068884201D140151AE02649A1
:1002B0003C312068884202D14FF4005012E02249BC
:1002C00050312068884203D14FF400300AE017E033
:1002D0001D4964312068884202D14FF4001001E0CA
:1002E0004FF0007018490839486000BF002084F8BA
:1002F000200000BFA06A30B32046A16A884722E0F0
:1003000094F84010082088402840E0B106F008002A
:10031000C8B12068006820F00E002168086094F8D9
:10032000401001208840E16B48600120A06384F800
:10033000210000BF002084F8200000BF206B10B116
:100340002046216B884770BD08000240014600220C
:1003500009B901207047184B0868C01A1423B0FB74
:10036000F3F08000086414480838C863022081F85C
:1003700021000868026843F6F0708243D1E9010366
:100380001843CB6818430B6918434B6918438B69B2
:100390001843CB6918430243086802600020886252
:1003A000C862086348638863012081F82100002047
:1003B00081F8200000BFCDE7080002402DE9F041A0
:1003C00004460D4616461F464FF0000800BF94F83D
:1003D0002000012802D10220BDE8F081012084F82C
:1003E000200000BF94F8210001282CD1022084F8BD
:1003F00021000020A0632068006820F0010021682F
:1004000008603B46324629462046FFF7B9FEE06ABF
:1004100030B12068006840F00E00216808600BE0F1
:100420002068006820F004002168086020680068E7
:1004300040F00A00216808602068006840F0010070
:100440002168086006E000BF002084F8200000BF9B
:100450004FF002084046BFE72DE9F8470346002465
:10046000002000258446002700226EE14FF001089D
:1004700008FA02F4D1F8008008EA0400A0427DD115
:10048000DFF8D0A2D1F80480A8EB0A09D0453AD011
:1004900014DCB8F1030F50D009DCB8F1000F31D0F3
:1004A000B8F1010F1CD0B8F1020F49D120E0B8F12A
:1004B000110F18D0B8F1120F42D11EE0B9F5881F04
:1004C00025D006DCB9F5803F20D0B9F5801F37D1A3
:1004D0001AE0B9F5001F18D0B9F5041F30D117E0A4
:1004E000D1F80CC02DE0D1F80C8008F1040C28E004
:1004F000D1F80C8008F1080C23E0D1F80C8008F149
:100500000C0C1EE000BF00BF00BF00BF00BF00BF5B
:10051000D1F80880B8F1000F02D14FF0040C0BE0C5
:10052000D1F80880B8F1010F03D14FF0080C1C611D
:1005300002E04FF0080C5C6103E04FF0000C00E0BB
:1005400000BF00BFFF2801D8984601E003F104086E
:100550004646FF2802D84FEA820803E0A2F10808C5
:100560004FEA88084746D6F800804FF00F0909FA8D
:1005700007F928EA09080CFA07F900E088E048EAD8
:100580000908C6F80080D1F8048008F08058B8F156
:10059000805F7DD100BFDFF8C081D8F8188048F0B7
:1005A0000108DFF8B491C9F81880C846D8F8188057
:1005B00008F00108CDF8008000BF00BF4FEAB9384D
:1005C0004FEA920958F829504FEA82784FEA187991
:1005D0004FF00F0808FA09F825EA0805DFF87C81D2
:1005E000434502D14FF0000816E0DFF8748143451F
:1005F00002D14FF001080FE0DFF86881434502D1D6
:100600004FF0020808E0DFF86081434502D14FF067
:10061000030801E04FF004084FEA82794FEA1979A4
:1006200008FA09F848EA0505DFF840814FEA92091F
:1006300048F82950D1F8048008F48038B8F5803F94
:100640000AD1DFF82C81D8F8008048EA0008DFF8EA
:100650002091C9F8008009E0DFF81481D8F8008003
:1006600028EA0008DFF80891C9F80080D1F8048072
:1006700008F40038B8F5003F10D1DFF8F48008F135
:100680000408D8F8008048EA0008DFF8E49000E0A9
:100690005AE009F10409C9F800800DE0DFF8D080C4
:1006A00008F10408D8F8008028EA0008DFF8C090B4
:1006B00009F10409C9F80080D1F8048008F4801811
:1006C000B8F5801F0ED1DFF8A88008F10808D8F827
:1006D000008048EA0008DFF8989009F10809C9F895
:1006E00000800DE0DFF8888008F10808D8F8008065
:1006F00028EA0008DFF8789009F10809C9F80080B5
:10070000D1F8048008F40018B8F5001F0ED1DFF806
:10071000608008F10C08D8F8008048EA0008DFF88B
:10072000509009F10C09C9F800800DE0DFF8408015
:1007300008F10C08D8F8008028EA0008DFF83090AB
:1007400009F10C09C9F80080521C102AFFF48EAE82
:10075000BDE8F887000011100010024000080140B9
:10076000000C01400010014000140140080001404D
:1007700000040140C2684A40C26070470AB101618A
:1007800001E00B04036170470148006870470000F6
:10079000140000200348006803490978084401490F
:1007A00008607047140000201C00002010B50848A5
:1007B000006840F0100006490860032000F0C2F80D
:1007C000002000F007F800F02BF8002010BD00001A
:1007D0000020024070B504460E4800784FF47A714C
:1007E000B1FBF0F00C490968B1FBF0F5284600F0C8
:1007F00014FC08B1012070BD102C07D20022214644
:10080000501E00F060F80548046001E00120F2E7A6
:100810000020F0E71C00002000000020180000204D
:1008200008B500BF1F48806940F001001D4988617C
:100830000846806900F00100009000BF00BF03205F
:1008400000F080F8002211466FF00B0000F03BF83A
:10085000002211466FF00A0000F035F80022114620
:100860006FF0090000F02FF800221146501F00F031
:100870002AF800221146101F00F025F80022114628
:10088000901E00F020F800221146501E00F01BF8C8
:1008900000BF0549486820F0E06040F00070486003
:1008A00000BF08BD001002400000014000BF00F082
:1008B0001F02012191404209920002F1E022C2F898
:1008C000001100BF70472DE9F05F80460D461646C7
:1008D000002701F04BF9074639462A46334601F016
:1008E0000700C0F1070ABAF1040F02D94FF0040A59
:1008F00001E0C0F1070AD14600F1040ABAF1070F7E
:1009000002D24FF0000A01E0A0F1030AD4464FF0F2
:10091000010A0AFA09FAAAF1010A0AEA020A0AFA1B
:100920000CFA4FF0010B0BFA0CFBABF1010B0BEACD
:10093000030B4AEA0B042146404601F01FF9BDE8CB
:10094000F09F000000BF00F00702064B19684FF649
:10095000FF031940044B0B4343EA0221014B19608A
:1009600000BF70470CED00E00000FA0570B50446CA
:100970000D4600266248006800F00700A8420ED22B
:100980005F48006820F0070028435D49086008467A
:10099000006800F00700A84201D0012070BD207857
:1009A00000F00200022807D15648406820F0F0000D
:1009B000A168084353494860207800F001000028EE
:1009C0005DD06068012806D14E48006800F4003010
:1009D00090B90120E2E76068022806D14948006822
:1009E00000F0007040B90120D8E74648006800F0E8
:1009F000020008B90120D1E74248406820F0030016
:100A0000616808433F494860FFF7BEFE06466068DC
:100A1000012810D108E0FFF7B7FE801B41F28831B2
:100A2000884201D90320B9E73648406800F00C003D
:100A30000428F0D123E06068022810D108E0FFF715
:100A4000A3FE801B41F28831884201D90320A5E72B
:100A50002C48406800F00C000828F0D10FE008E0B6
:100A6000FFF792FE801B41F28831884201D90320B2
:100A700094E72448406800F00C000028F0D120489A
:100A8000006800F00700A8420ED91D48006820F059
:100A9000070028431A4908600846006800F007006C
:100AA000A84201D0012079E7207800F00400042852
:100AB00007D11448406820F4E060E1680843114918
:100AC0004860207800F00800082808D10D484068E8
:100AD00020F46050216940EAC1000A49486000F0F2
:100AE0001DF808494968C1F30311074A515CC84021
:100AF000064908600020FFF76DFE00204EE7000069
:100B000000200240001002404820000800000020A1
:100B1000014800687047000000000020F0B585B073
:100B20000FF26C0C9CE8E01001A8A0E8E0101CA5F6
:100B30002D68009500210022002300240020194D7B
:100B4000696801F00C05F5B1042D02D0082D19D10A
:100B500001E0154819E001ADC1F38346AC5D01F435
:100B6000803555B10F4D6D68C5F340451DF8052022
:100B70000D4D6543B5FBF2F302E00C4D04FB05F3AC
:100B8000184602E000BF084800BF00BF05B0F0BD36
:100B900002030405060708090A0B0C0D0E0F1010BE
:100BA000010200000010024000127A0000093D001E
:100BB000F8B504460025207800F00100002878D020
:100BC000F848406800F00C0004280CD0F548406854
:100BD00000F00C00082811D1F248406800F4803081
:100BE000B0F5803F0AD1EF48006800F400300028DB
:100BF0005FD0606800285CD10120F8BD00BF60684C
:100C0000B0F5803F06D1E748006840F48030E54900
:100C1000086028E0606858B9E248006820F4803035
:100C2000E04908600846006820F4802008601AE067
:100C30006068B0F5A02F0BD1DA48006840F480203E
:100C4000D84908600846006840F4803008600AE02F
:100C5000D448006820F48030D24908600846006813
:100C600020F48020086000BF606888B1FFF78CFD29
:100C7000054606E0FFF788FD401B642801D90320E4
:100C8000BBE7C848006800F400300028F2D010E04C
:100C9000FFF77AFD054606E0FFF776FD401B642866
:100CA00001D90320A9E7BF48006800F400300028FC
:100CB000F2D1207800F00200022857D1B9484068EC
:100CC00000F00C0050B1B748406800F00C00082854
:100CD00018D1B448406800F4803098B9B148006831
:100CE00000F0020020B12069012801D0012084E732
:100CF000AC48006820F0F800616940EAC100A949E9
:100D0000086033E02069E8B10120A7490860FFF7D7
:100D10003BFD054606E0FFF737FD401B022801D9E1
:100D200003206AE79F48006800F002000028F2D024
:100D30009C48006820F0F800616940EAC1009949C8
:100D4000086013E0002098490860FFF71DFD054684
:100D500006E0FFF719FD401B022801D903204CE7EC
:100D60009048006800F002000028F2D1207800F0DE
:100D7000080008282DD1A069B8B101208B4908606E
:100D8000FFF702FD054606E0FFF7FEFC401B0228C8
:100D900001D9032031E78348406A00F002000028AF
:100DA000F2D0012000F000FF13E000207F4908602E
:100DB000FFF7EAFC054606E0FFF7E6FC401B0228C9
:100DC00001D9032019E77748406A00F002000028A3
:100DD000F2D1207800F00400042873D10026714875
:100DE000C06900F0805070B900BF6E48C06940F023
:100DF00080506C49C8610846C06900F0805000907E
:100E000000BF00BF01266A48006800F48070B0B9D6
:100E10006748006840F4807065490860FFF7B4FCDB
:100E2000054606E0FFF7B0FC401B642801D903200B
:100E3000E3E65F48006800F480700028F2D000BF4D
:100E4000E068012806D15748006A40F00100554982
:100E5000086227E0E06858B95248006A20F00100B3
:100E6000504908620846006A20F00400086219E050
:100E7000E06805280BD14B48006A40F0040049495E
:100E800008620846006A40F0010008620AE045482E
:100E9000006A20F00100434908620846006A20F019
:100EA0000400086200BFE068A0B1FFF76DFC0546D2
:100EB00009E0FFF769FC401B41F28831884202D902
:100EC00003209AE622E03748006A00F0020000287A
:100ED000EFD012E0FFF758FC054608E0FFF754FC9E
:100EE000401B41F28831884201D9032085E62D4814
:100EF000006A00F002000028F0D1012E05D1294837
:100F0000C06920F080502749C86100BFE069C8B3BC
:100F10002448406800F00C00082860D0E0690228EE
:100F200048D1002020490866FFF72EFC054606E060
:100F3000FFF72AFC401B022801D903205DE619486F
:100F4000006800F000700028F2D1206AB0F5803F00
:100F500007D11448406820F40030A16808431149C3
:100F60004860D4E9080108430E49496821F4741126
:100F700008430C49486001200B490866FFF704FC50
:100F8000054607E02DE0FFF7FFFB401B022801D9D3
:100F9000032032E60348006800F000700028F2D019
:100FA0001FE0000000100240000042428004424264
:100FB0000070004000200C490866FFF7E5FB05467D
:100FC00006E0FFF7E1FB401B022801D9032014E6ED
:100FD0000648006800F000700028F2D101E001200E
:100FE0000BE6002009E6000000004242001002402B
:100FF000042808D14FF0E021096941F004014FF0C5
:10100000E022116107E04FF0E021096921F00401BD
:101010004FF0E02211617047704770B504462546D5
:10102000681EB0F1807F01D301200FE0681E4FF0F1
:10103000E02148610F214FF0FF3000F09FFD0020BC
:101040004FF0E021886107200861002070BD10B5D5
:10105000FFF7E2FF10BD70477047024600BF92F8ED
:101060003C00012801D102207047012082F83C0099
:1010700000BF022082F83D001068406820F0700038
:1010800013685860106840680B681843136858600C
:101090001068806820F0800013689860106880688D
:1010A0004B68184313689860012082F83D0000BF28
:1010B000002082F83C0000BF00BFD5E710B5044611
:1010C0000CB9012010BD94F83D0028B9002084F827
:1010D0003C00204600F00CF8022084F83D00211D61
:1010E000206800F009FE012084F83D000020E9E7B7
:1010F00010B586B004462068B0F1804F16D100BF0D
:101100004248C06940F001004049C8610846C069D2
:1011100000F00100019000BF00BF002211461C201A
:10112000FFF7D1FB1C20FFF7C1FB6DE038492068B9
:1011300088424FD100BF3548C06940F002003349B2
:10114000C8610846C06900F00200019000BF00BFFE
:1011500010200290002003900220049002A92D4844
:10116000FFF77AF900BF2C49486820F4406040F04E
:10117000E06040F40060486000BF284828490860EB
:10118000002048600021264881608021C16049001C
:10119000016189004161002181614FF48051C16189
:1011A000FFF7D4F818B186211EA000F0F0FE00BFB2
:1011B0001B4961620846446200BF00BFA1634462EC
:1011C00000BF002211461D20FFF77DFB1D20FFF709
:1011D0006DFB19E01A492068884215D100BF0B4801
:1011E000C06940F004000949C8610846C06900F0C0
:1011F0000400019000BF00BF002211461E20FFF72F
:1012000062FB1E20FFF752FB06B010BD001002402B
:1012100000040040000C0140000001406C0002404E
:10122000E00000202E2E2F5372632F73746D333223
:10123000663178785F68616C5F6D73702E63000053
:10124000000800402DE9F04104460D46002600BF8D
:1012500094F83C00012802D10220BDE8F081012071
:1012600084F83C0000BF022084F83D0020688668B6
:1012700026F0770626F47F46206886602868502886
:101280003BD00CDC202860D004DC002853D0102890
:1012900065D155E030285DD0402860D141E060281C
:1012A00035D070280DD0B0F5805F03D0B0F5005F69
:1012B00055D115E02068806820F00700216888601B
:1012C0004EE0D5E902136A68206800F08AFD2068C4
:1012D000866826F0770646F07706206886603FE04D
:1012E000D5E902136A68206800F07BFD20688068F9
:1012F00040F480402168886032E0EA6869682068CC
:1013000000F085FD5021206800F077FD28E0EA68B4
:101310006968206800F0C6FD6021206800F06DFD5E
:101320001EE0EA686968206800F071FD40212068CD
:1013300000F063FD14E00021206800F05EFD0FE086
:101340001021206800F059FD0AE02021206800F0FB
:1013500054FD05E03021206800F04FFD00E000BFA3
:1013600000BF012084F83D0000BF002084F83C004D
:1013700000BF00BF71E7704710B5044633480078DE
:1013800000F0800000285FD13048007800F0400075
:10139000D8B12E48007840F080002C490870002118
:1013A0002B4800F081FA2B49086029480068006A40
:1013B0004FF6F5710840264909680862244800681C
:1013C000006A2349096808623EE000201F4908704E
:1013D000204908601D48007840F040001B49087013
:1013E00000BF1B480068006A41F21111084068B94B
:1013F00017480068006A8910084038B91448006826
:10140000006820F0010012490968086000BF002050
:101410000F49096848620E480068006A4FF6F57186
:1014200008400B490968086209480068006A40F0F2
:10143000020007490968086205480068006840F032
:10144000010003490968086010BD00000400002085
:1014500060000020080000202DE9F04104460D4600
:10146000164600BF94F83C00012802D10220BDE8D6
:10147000F081012084F83C0000BF022084F83D0088
:1014800096B9EB68D5E90012206800F0D5FC206819
:10149000806920F00C002168886120688069A96853
:1014A0000843216888613DE0042E13D1EB68D5E93B
:1014B0000012206800F00CFD2068806920F4406074
:1014C0002168886120688069A96840EA0120216854
:1014D000886127E0082E12D1EB68D5E90012206858
:1014E00000F015FD2068C06920F00C002168C8617B
:1014F0002068C069A96808432168C86112E0EB68E8
:10150000D5E90012206800F020FD2068C06920F4B1
:1015100040602168C8612068C069A96840EA01206C
:101520002168C861012084F83D0000BF002084F8D4
:101530003C0000BF00BF9AE710B504460CB901207B
:1015400010BD94F83D0028B9002084F83C002046E6
:1015500000F00CF8022084F83D00211D206800F006
:10156000CBFB012084F83D000020E9E710B586B0F0
:10157000044600BF1748C06940F001001549C86122
:101580000846C06900F00100019000BF00BF00BF25
:101590000846806940F0080088610846806900F0CC
:1015A0000800019000BF00BF1020029000200390AF
:1015B000022004900320059002A90748FEF74CFF83
:1015C000002202211D20FFF77EF91D20FFF76EF992
:1015D00006B010BD00100240000C01402DE9F041A2
:1015E00004460D4616461F4694F83D00022801D1D8
:1015F000BDE8F08194F83D00012805D10EB907B18E
:10160000F6E7022084F83D0035B1042D19D0082DED
:101610002CD00C2D54D13EE03149606A81623149B1
:10162000606A0163226802F134013B463246606A17
:10163000FEF7C4FE2068C06840F400702168C860EE
:101640003FE02749A06A81622649A06A01632268B7
:1016500002F138013B463246A06AFEF7AFFE206831
:10166000C06840F480602168C8602AE01C49E06AD4
:1016700081621C49E06A0163226802F13C013B4639
:101680003246E06AFEF79AFE2068C06840F40060C7
:101690002168C86015E01249206B81621149206BF6
:1016A0000163226802F140013B463246206BFEF79F
:1016B00085FE2068C06840F480502168C86000E062
:1016C00000BF00BF01222946206800F04FFB2068C0
:1016D000006840F0010021680860002088E70000F1
:1016E000891D0008CF1D000810B504462068006958
:1016F000C0F34000D8B12068C068C0F34000B0B16A
:101700006FF002002168086101202077206880695D
:1017100000F0030018B12046FFF72EFE05E020463A
:1017200000F0ADF8204600F0ABF8002020772068EC
:101730000069C0F38000D8B12068C068C0F38000A1
:10174000B0B16FF0040021680861022020772068A2
:10175000806900F4407018B12046FFF70DFE05E0E7
:10176000204600F08CF8204600F08AF80020207710
:1017700020680069C0F3C000D8B12068C068C0F319
:10178000C000B0B16FF00800216808610420207724
:101790002068C06900F0030018B12046FFF7ECFD97
:1017A00005E0204600F06BF8204600F069F80020C4
:1017B000207720680069C0F30010D8B12068C068A5
:1017C000C0F30010B0B16FF010002168086108206C
:1017D00020772068C06900F4407018B12046FFF7F8
:1017E000CBFD05E0204600F04AF8204600F048F81E
:1017F000002020772068006900F0010058B12068BF
:10180000C06800F0010030B16FF00100216808618C
:10181000204600F037F820680069C0F3C01058B1C6
:101820002068C068C0F3C01030B16FF0800021683C
:1018300008612046FFF70FFC20680069C0F38010A4
:1018400058B12068C068C0F3801030B16FF040001C
:1018500021680861204600F051F820680069C0F353
:10186000401058B12068C068C0F3401030B16FF02C
:101870002000216808612046FFF7EEFB10BD70478D
:10188000704700000749097801F0800149B905490E
:10189000097801F0400121B102490978491C014A47
:1018A00011707047040000200246002300BF92F828
:1018B0003C00012801D102207047012082F83C0041
:1018C00000BF31B1042907D0082908D00C290CD158
:1018D00008E01068436B09E01068836B06E010684D
:1018E000C36B03E01068036C00E000BF00BF00BFE3
:1018F000002082F83C0000BF1846DDE7704700BFBB
:10190000FEE7000008B500BF0A48406940F001004A
:10191000084948610846406900F00100009000BF96
:1019200000BF002211461020FEF7CDFF1020FEF769
:10193000BDFF08BD0010024000B585B000BF1D48C6
:10194000806940F020001B4988610846806900F0EA
:101950002000009000BF00BF00BF0846806940F033
:10196000040088610846806900F00400009000BF10
:1019700000BF00BF0846806940F008008861084643
:10198000806900F00800009000BF00BF00224FF403
:1019900000410948FEF7F2FE4FF40040019001209B
:1019A00002900220049001A90348FEF755FD05B0FE
:1019B00000BD0000001002400008014000B587B0E3
:1019C0004FF08040164908604720486000211448C5
:1019D00081603C21C160002101618161FFF76EFBE4
:1019E00018B1F8210FA000F0D2FA4FF48050039004
:1019F00003A90B48FFF726FC18B1FE2109A000F04F
:101A0000C6FA00200190029001A90548FFF725FBC6
:101A100020B140F2051103A000F0B9FA07B000BDF3
:101A2000200000202E2E2F5372632F6D61696E2EC1
:101A30006300000000B58BB02548264908604720A8
:101A400048600021234881603221C160002101618A
:101A50008161FFF733FB20B14FF48D711EA000F0C0
:101A600096FA4FF48050079007A91A48FFF7EAFB4F
:101A700020B14FF4907118A000F089FA1548FFF7D3
:101A80005BFD20B140F2251113A000F080FA002088
:101A90000590069005A90F48FFF7DFFA20B14FF433
:101AA00096710DA000F073FA0020019001200290C1
:101AB000002003900490002201A90648FFF7CCFC07
:101AC00020B140F2351104A000F061FA0BB000BD66
:101AD00000040040600000202E2E2F5372632F6DF3
:101AE00061696E2E6300000000B587B01748184981
:101AF000086000204860002115488160C1600161D4
:101B00008161FFF7DBFA20B140F2491111A000F02A
:101B10003EFA4FF48050039003A90D48FFF792FB63
:101B200020B140F24F110BA000F031FA00200190DB
:101B3000029001A90648FFF790FA20B14FF4AB716B
:101B400004A000F024FA07B000BD00000008004027
:101B5000A00000202E2E2F5372632F6D61696E2E10
:101B60006300000000BFFEE7704700000248006805
:101B7000C0F30220704700000CED00E010B5002813
:101B800007DA0A07140E054A00F00F031B1FD4548E
:101B900003E00A07130E024A135410BD18ED00E0CB
:101BA00000E400E07047000008B508490968C9086A
:101BB0004FF47A72B1FBF2F14143009100BF00BFD4
:101BC00000994A1E00920029F9D108BD00000020AA
:101BD000704710B5FEF7DEFDFFF739FA10BD0000C3
:101BE00010B590B0012006900004079000200890E6
:101BF00001200A9002200D90C1030E914FF4E011D4
:101C00000F9106A8FEF7D4FF18B1CC2114A000F064
:101C1000BEF90F20019002200290002003904FF4A3
:101C20008060049000200590022101A8FEF79EFE2E
:101C300018B1DA210AA000F0AAF9FEF769FF4FF403
:101C40007A71B0FBF1F42046FFF7E7F90420FFF7C3
:101C5000CFF900221146501EFEF735FE10B010BD20
:101C60002E2E2F5372632F6D61696E2E630000005C
:101C70001148006840F001000F49086008464068BC
:101C80000E4908400C494860084600680C49084065
:101C9000094908600846006820F48020086008466A
:101CA000406820F4FE0048604FF41F008860C803BD
:101CB0000449086070470000001002400000FFF86F
:101CC000FFFFF6FE08ED00E010B50248FFF70CFD3F
:101CD00010BD00002000002010B50248FFF704FDF1
:101CE00010BD00006000002010B50248FFF7FCFCAA
:101CF00010BD0000A000002000220268184B98428E
:101D000008D0B0F1804F05D0164B984202D0164B48
:101D1000984203D122F070024B681A43104B98424C
:101D200008D0B0F1804F05D00E4B984202D00E4B38
:101D3000984203D122F44072CB681A4322F0800209
:101D40004B691A4302608B68C3620B688362044B61
:101D5000984201D10B69036301234361704700007E
:101D6000002C0140000400400008004030B5002372
:101D7000012404FA01F3046A9C430462046A02FA2F
:101D800001F52C43046230BD70B505466C6A012034
:101D900084F83D00606AA84202D10120207710E05B
:101DA000A06AA84202D1022020770AE0E06AA84295
:101DB00002D10420207704E0206BA84201D1082042
:101DC00020772046FFF7D8FA0020207770BD70B545
:101DD0000446656A012085F83D002846FFF7CBFAE6
:101DE00070BD30B50C460021816821F47F4142EA84
:101DF000032525432943816030BD0A4600218168BF
:101E000021F0700142F0070319438160704730B53B
:101E10000B46144600210022026A056A25F00105DE
:101E20000562816921F0F00141EA041122F00A0201
:101E30001A438161026230BD70B50C46154600211F
:101E40000022066A26F0010606628169026A124EC5
:101E5000B04208D0B0F1804F05D0104EB04202D051
:101E60000F4EB04201D1012600E000261EB121F044
:101E70000301294301E041F0010121F0F001F026C6
:101E800006EA0316314322F00A0204F00A0632433E
:101E90008161026270BD0000002C0140000400401E
:101EA0000008004030B50B46144600210022056AA8
:101EB00025F0100505628169026A21F4704141EA4A
:101EC000043122F0A00242EA03128161026230BDB5
:101ED00070B50C46154600210022066A26F0100651
:101EE00006628169026A21F4407141EA052121F408
:101EF00070414FF4704606EA0336314322F0A002E7
:101F0000A02606EA041632438161026270BD70B5F4
:101F10000C46154600210022066A26F480760662E9
:101F2000C169026A21F00301294321F0F001F02682
:101F300006EA0316314322F420624FF4206606EAD3
:101F400004263243C161026270BD70B50C4615466D
:101F500000210022066A26F480560662C169026AE0
:101F600021F4407141EA052121F470414FF470469B
:101F700006EA0336314322F400524FF4005606EAD3
:101F800004363243C161026270BD00BFFEE700BF8C
:101F9000FEE702E008C8121F08C1002AFAD1704704
:101FA0007047002001E001C1121F002AFBD17047D9
:101FB00010B504460420FFF71BF80148047010BD5B
:101FC0001000002094B0FEF7F1FB00BF00BF00BF7F
:101FD00000BF00BF4C2101A8FEF7ABF8FFF700FEE1
:101FE000FFF7AAFCFFF78EFCFFF724FDFFF77CFD4F
:101FF000FFF7E4FC4820FFF7DBFF10480068C068EB
:1020000040F001000D490968C86015E0132301AADA
:1020100000210A48FFF7E2FA0948007800F0800042
:1020200050B100BF00BF00BF4FF400410548FEF7AC
:10203000A1FB002002490870E8E7000060000020D2
:102040000400002000080140000000000000000023
:10205000010203040607080900000000010203044E
:10206000802000080000002020000000921F0008CF
:10207000A02000082000002018050000A21F000872
:1020800000A24A0400000000000000000000000060
:10209000000000000000000010000000010000002F
:04000005080000ED02
:00000001FF
