:020000040800F2
:10000000E0040020010100088517000827150008FA
:100010008117000849010008B31B00080000000018
:10002000000000000000000000000000ED170008C4
:100030004D01000800000000C1170008EF1700087C
:100040001B0100081B0100081B0100081B01000820
:100050001B0100081B0100081B0100081B01000810
:100060001B0100081B0100081B0100081B01000800
:100070001B0100081B0100081B0100081B010008F0
:100080001B0100081B0100081B0100081B010008E0
:100090001B0100081B0100081B0100081B010008D0
:1000A0001B0100081B0100081B0100081B010008C0
:1000B0004919000859190008691900081B010008AE
:1000C0001B0100081B0100081B0100081B010008A0
:1000D0001B0100081B0100081B0100081B01000890
:1000E0001B0100081B0100081B010008DFF80CD0F1
:1000F00000F018F800480047ED1B0008E00400205D
:100100000648804706480047FEE7FEE7FEE7FEE7B1
:10011000FEE7FEE7FEE7FEE7FEE7FEE78D180008D4
:10012000ED000008064C074D06E0E06840F00103D2
:1001300094E8070098471034AC42F6D3FFF7DAFF93
:10014000781C0008981C000800BFFEE770470000FC
:100150002DE9F847034600240020002584460027A7
:1001600000226EE14FF0010808FA02F4D1F8008095
:1001700008EA0400A0427DD1DFF8D0A2D1F80480C3
:10018000A8EB0A09D0453AD014DCB8F1030F50D0DF
:1001900009DCB8F1000F31D0B8F1010F1CD0B8F173
:1001A000020F49D120E0B8F1110F18D0B8F1120FA9
:1001B00042D11EE0B9F5881F25D006DCB9F5803F95
:1001C00020D0B9F5801F37D11AE0B9F5001F18D03B
:1001D000B9F5041F30D117E0D1F80CC02DE0D1F8EB
:1001E0000C8008F1040C28E0D1F80C8008F1080C10
:1001F00023E0D1F80C8008F10C0C1EE000BF00BF1A
:1002000000BF00BF00BF00BFD1F80880B8F1000FE9
:1002100002D14FF0040C0BE0D1F80880B8F1010FC7
:1002200003D14FF0080C1C6102E04FF0080C5C6138
:1002300003E04FF0000C00E000BF00BFFF2801D832
:10024000984601E003F104084646FF2802D84FEA29
:10025000820803E0A2F108084FEA88084746D6F86A
:1002600000804FF00F0909FA07F928EA09080CFA8B
:1002700007F900E088E048EA0908C6F80080D1F8EC
:10028000048008F08058B8F1805F7DD100BFDFF8AE
:10029000C081D8F8188048F00108DFF8B491C9F897
:1002A0001880C846D8F8188008F00108CDF80080FA
:1002B00000BF00BF4FEAB9384FEA920958F82950F9
:1002C0004FEA82784FEA18794FF00F0808FA09F8D8
:1002D00025EA0805DFF87C81434502D14FF000088C
:1002E00016E0DFF87481434502D14FF001080FE0BA
:1002F000DFF86881434502D14FF0020808E0DFF8DB
:100300006081434502D14FF0030801E04FF004083B
:100310004FEA82794FEA197908FA09F848EA05059F
:10032000DFF840814FEA920948F82950D1F804805B
:1003300008F48038B8F5803F0AD1DFF82C81D8F86E
:10034000008048EA0008DFF82091C9F8008009E041
:10035000DFF81481D8F8008028EA0008DFF8089157
:10036000C9F80080D1F8048008F40038B8F5003FDF
:1003700010D1DFF8F48008F10408D8F8008048EACA
:100380000008DFF8E49000E05AE009F10409C9F838
:1003900000800DE0DFF8D08008F10408D8F8008074
:1003A00028EA0008DFF8C09009F10409C9F80080C4
:1003B000D1F8048008F48018B8F5801F0ED1DFF85A
:1003C000A88008F10808D8F8008048EA0008DFF89B
:1003D000989009F10809C9F800800DE0DFF88880DD
:1003E00008F10808D8F8008028EA0008DFF87890BB
:1003F00009F10809C9F80080D1F8048008F4001850
:10040000B8F5001F0ED1DFF8608008F10C08D8F8AD
:10041000008048EA0008DFF8509009F10C09C9F89B
:1004200000800DE0DFF8408008F10C08D8F800806B
:1004300028EA0008DFF8309009F10C09C9F80080BB
:10044000521C102AFFF48EAEBDE8F8870000111090
:100450000010024000080140000C01400010014063
:10046000001401400800014000040140C2684A40F5
:10047000C26070470AB1016101E00B04036170477B
:100480000148006870470000100000200348006821
:1004900003490978084401490860704710000020AA
:1004A0001800002010B50848006840F01000064908
:1004B0000860032000F0C2F8002000F007F800F008
:1004C0002BF8002010BD00000020024070B504464B
:1004D0000E4800784FF47A71B1FBF0F00C490968CE
:1004E000B1FBF0F5284600F014FC08B1012070BD06
:1004F000102C07D200222146501E00F060F805485B
:10050000046001E00120F2E70020F0E7180000207D
:10051000000000201400002008B500BF1F488069BB
:1005200040F001001D4988610846806900F0010023
:10053000009000BF00BF032000F080F800221146A9
:100540006FF00B0000F03BF8002211466FF00A003C
:1005500000F035F8002211466FF0090000F02FF886
:1005600000221146501F00F02AF800221146101FE9
:1005700000F025F800221146901E00F020F800221D
:100580001146501E00F01BF800BF0549486820F0D6
:10059000E06040F00070486000BF08BD00100240FD
:1005A0000000014000BF00F01F02012191404209FC
:1005B000920002F1E022C2F8001100BF70472DE95D
:1005C000F05F80460D461646002701F0DDF807462D
:1005D00039462A46334601F00700C0F1070ABAF14E
:1005E000040F02D94FF0040A01E0C0F1070AD14616
:1005F00000F1040ABAF1070F02D24FF0000A01E03D
:10060000A0F1030AD4464FF0010A0AFA09FAAAF146
:10061000010A0AEA020A0AFA0CFA4FF0010B0BFA75
:100620000CFBABF1010B0BEA030B4AEA0B0421466E
:10063000404601F0B1F8BDE8F09F000000BF00F0B7
:100640000702064B19684FF6FF031940044B0B4392
:1006500043EA0221014B196000BF70470CED00E036
:100660000000FA0570B504460D4600266248006891
:1006700000F00700A8420ED25F48006820F0070093
:1006800028435D4908600846006800F00700A8425A
:1006900001D0012070BD207800F00200022807D1AF
:1006A0005648406820F0F000A1680843534948606C
:1006B000207800F0010000285DD06068012806D194
:1006C0004E48006800F4003090B90120E2E760680D
:1006D000022806D14948006800F0007040B90120A6
:1006E000D8E74648006800F0020008B90120D1E7C9
:1006F0004248406820F00300616808433F49486071
:10070000FFF7BEFE06466068012810D108E0FFF73B
:10071000B7FE801B41F28831884201D90320B9E736
:100720003648406800F00C000428F0D123E06068EF
:10073000022810D108E0FFF7A3FE801B41F28831A8
:10074000884201D90320A5E72C48406800F00C003E
:100750000828F0D10FE008E0FFF792FE801B41F27D
:100760008831884201D9032094E72448406800F08A
:100770000C000028F0D12048006800F00700A842D3
:100780000ED91D48006820F0070028431A49086068
:100790000846006800F00700A84201D0012079E770
:1007A000207800F00400042807D11448406820F4A1
:1007B000E060E168084311494860207800F00800D3
:1007C000082808D10D48406820F46050216940EAAB
:1007D000C1000A49486000F01DF808494968C1F3A2
:1007E0000311074A515CC840064908600020FFF722
:1007F0006DFE00204EE70000002002400010024085
:10080000601C0008000000200148006870470000DC
:1008100000000020F0B585B00FF26C0C9CE8E010F1
:1008200001A8A0E8E0101CA52D6800950021002279
:10083000002300240020194D696801F00C05F5B172
:10084000042D02D0082D19D101E0154819E001ADA1
:10085000C1F38346AC5D01F4803555B10F4D6D6831
:10086000C5F340451DF805200D4D6543B5FBF2F37A
:1008700002E00C4D04FB05F3184602E000BF0848F7
:1008800000BF00BF05B0F0BD02030405060708095C
:100890000A0B0C0D0E0F1010010200000010024098
:1008A00000127A0000093D00F8B5044600252078C2
:1008B00000F00100002878D0F848406800F00C00F3
:1008C00004280CD0F548406800F00C00082811D12D
:1008D000F248406800F48030B0F5803F0AD1EF481C
:1008E000006800F4003000285FD0606800285CD108
:1008F0000120F8BD00BF6068B0F5803F06D1E74831
:10090000006840F48030E549086028E0606858B924
:10091000E248006820F48030E0490860084600683A
:1009200020F4802008601AE06068B0F5A02F0BD199
:10093000DA48006840F48020D8490860084600681A
:1009400040F4803008600AE0D448006820F4803029
:10095000D24908600846006820F48020086000BF83
:10096000606888B1FFF78CFD054606E0FFF788FD5B
:10097000401B642801D90320BBE7C848006800F485
:1009800000300028F2D010E0FFF77AFD054606E0BF
:10099000FFF776FD401B642801D90320A9E7BF4873
:1009A000006800F400300028F2D1207800F0020046
:1009B000022857D1B948406800F00C0050B1B74840
:1009C000406800F00C00082818D1B448406800F4D2
:1009D000803098B9B148006800F0020020B1206969
:1009E000012801D0012084E7AC48006820F0F8001D
:1009F000616940EAC100A949086033E02069E8B1B3
:100A00000120A7490860FFF73BFD054606E0FFF718
:100A100037FD401B022801D903206AE79F48006880
:100A200000F002000028F2D09C48006820F0F80096
:100A3000616940EAC1009949086013E000209849C3
:100A40000860FFF71DFD054606E0FFF719FD401B96
:100A5000022801D903204CE79048006800F002000A
:100A60000028F2D1207800F0080008282DD1A069D4
:100A7000B8B101208B490860FFF702FD054606E08A
:100A8000FFF7FEFC401B022801D9032031E7834811
:100A9000406A00F002000028F2D0012000F092FE2F
:100AA00013E000207F490860FFF7EAFC054606E0F6
:100AB000FFF7E6FC401B022801D9032019E777481D
:100AC000406A00F002000028F2D1207800F0040013
:100AD000042873D100267148C06900F0805070B9B5
:100AE00000BF6E48C06940F080506C49C86108463C
:100AF000C06900F08050009000BF00BF01266A4826
:100B0000006800F48070B0B96748006840F48070F5
:100B100065490860FFF7B4FC054606E0FFF7B0FC46
:100B2000401B642801D90320E3E65F48006800F415
:100B300080700028F2D000BFE068012806D1574835
:100B4000006A40F001005549086227E0E06858B9A2
:100B50005248006A20F00100504908620846006AC5
:100B600020F00400086219E0E06805280BD14B482A
:100B7000006A40F00400494908620846006A40F0F3
:100B8000010008620AE04548006A20F0010043497C
:100B900008620846006A20F00400086200BFE068AE
:100BA000A0B1FFF76DFC054609E0FFF769FC401BAB
:100BB00041F28831884202D903209AE622E0374880
:100BC000006A00F002000028EFD012E0FFF758FCA6
:100BD000054608E0FFF754FC401B41F2883188428B
:100BE00001D9032085E62D48006A00F002000028A4
:100BF000F0D1012E05D12948C06920F08050274945
:100C0000C86100BFE069C8B32448406800F00C0028
:100C1000082860D0E069022848D1002020490866F1
:100C2000FFF72EFC054606E0FFF72AFC401B0228D2
:100C300001D903205DE61948006800F00070002823
:100C4000F2D1206AB0F5803F07D11448406820F403
:100C50000030A168084311494860D4E908010843FD
:100C60000E49496821F4741108430C494860012079
:100C70000B490866FFF704FC054607E02DE0FFF787
:100C8000FFFB401B022801D9032032E6034800681D
:100C900000F000700028F2D01FE0000000100240B9
:100CA00000004242800442420070004000200C4993
:100CB0000866FFF7E5FB054606E0FFF7E1FB401B92
:100CC000022801D9032014E60648006800F00070ED
:100CD0000028F2D101E001200BE6002009E6000027
:100CE0000000424200100240042808D14FF0E021E9
:100CF000096941F004014FF0E022116107E04FF073
:100D0000E021096921F004014FF0E02211617047F0
:100D1000704770B504462546681EB0F1807F01D348
:100D200001200FE0681E4FF0E02148610F214FF0D5
:100D3000FF3000F031FD00204FF0E02188610720F6
:100D40000861002070BD10B5FFF7E2FF10BD7047CD
:100D50007047024600BF92F83C00012801D10220F2
:100D60007047012082F83C0000BF022082F83D005D
:100D70001068406820F07000136858601068406880
:100D80000B681843136858601068806820F0800072
:100D900013689860106880684B68184313689860FF
:100DA000012082F83D0000BF002082F83C0000BF17
:100DB00000BFD5E710B504460CB9012010BD94F86A
:100DC0003D0028B9002084F83C00204600F00CF8D3
:100DD000022084F83D00211D206800F0CDFD012097
:100DE00084F83D000020E9E710B586B0044620688D
:100DF000B0F1804F2AD100BF3448C06940F00100F3
:100E00003249C8610846C06900F00100019000BF86
:100E100000BF0820029000200390049002A92C48F3
:100E2000FFF796F900BF2B49486820F4407040F066
:100E3000E06040F48070486000BF002211461C2032
:100E4000FFF7BDFB1C20FFF7ADFB3DE0224920680A
:100E500088421FD100BF1D48C06940F002001B49F5
:100E6000C8610846C06900F00200019000BF00BFE1
:100E70004020029000200390049002A91748FFF739
:100E800067F9002211461D20FFF799FB1D20FFF78F
:100E900089FB19E012492068884215D100BF0B4830
:100EA000C06940F004000949C8610846C06900F003
:100EB0000400019000BF00BF002211461E20FFF772
:100EC0007EFB1E20FFF76EFB06B010BD0010024037
:100ED000000C0140000001400004004000080140F7
:100EE000000800402DE9F04104460D46002600BFF1
:100EF00094F83C00012802D10220BDE8F0810120D5
:100F000084F83C0000BF022084F83D002068866819
:100F100026F0770626F47F462068866028685028E9
:100F20003BD00CDC202860D004DC002853D01028F3
:100F300065D155E030285DD0402860D141E060287F
:100F400035D070280DD0B0F5805F03D0B0F5005FCC
:100F500055D115E02068806820F00700216888607E
:100F60004EE0D5E902136A68206800F04DFD206864
:100F7000866826F0770646F07706206886603FE0B0
:100F8000D5E902136A68206800F03EFD2068806899
:100F900040F480402168886032E0EA68696820682F
:100FA00000F048FD5021206800F03AFD28E0EA6892
:100FB0006968206800F08AFD6021206800F030FD3B
:100FC0001EE0EA686968206800F034FD402120686E
:100FD00000F026FD14E00021206800F021FD0FE064
:100FE0001021206800F01CFD0AE02021206800F09C
:100FF00017FD05E03021206800F012FD00E000BF81
:1010000000BF012084F83D0000BF002084F83C00B0
:1010100000BF00BF71E7000010B5044633480078F8
:1010200000F0800000285FD13048007800F04000D8
:10103000D8B12E48007840F080002C49087000217B
:101040002B4800F045FA2B49086029480068006ADF
:101050004FF6F5710840264909680862244800687F
:10106000006A2349096808623EE000201F490870B1
:10107000204908601D48007840F040001B49087076
:1010800000BF1B480068006A41F21111084068B9AE
:1010900017480068006A8910084038B91448006889
:1010A000006820F0010012490968086000BF0020B4
:1010B0000F49096848620E480068006A4FF6F571EA
:1010C00008400B490968086209480068006A40F056
:1010D000020007490968086205480068006840F096
:1010E000010003490968086010BD000004000020E9
:1010F0001C000020080000202DE9F04104460D46A8
:10110000164600BF94F83C00012802D10220BDE839
:10111000F081012084F83C0000BF022084F83D00EB
:1011200096B9EB68D5E90012206800F099FC2068B8
:10113000806920F00C002168886120688069A968B6
:101140000843216888613DE0042E13D1EB68D5E99E
:101150000012206800F0D0FC2068806920F4406014
:101160002168886120688069A96840EA01202168B7
:10117000886127E0082E12D1EB68D5E900122068BB
:1011800000F0D9FC2068C06920F00C002168C8611B
:101190002068C069A96808432168C86112E0EB684B
:1011A000D5E90012206800F0E4FC2068C06920F452
:1011B00040602168C8612068C069A96840EA0120D0
:1011C0002168C861012084F83D0000BF002084F838
:1011D0003C0000BF00BF9AE710B504460CB90120DF
:1011E00010BD94F83D0028B9002084F83C0020464A
:1011F00000F00CF8022084F83D00211D206800F06A
:10120000BBFB012084F83D000020E9E710B586B063
:10121000044600BF1748C06940F001001549C86185
:101220000846C06900F00100019000BF00BF00BF88
:101230000846806940F0080088610846806900F02F
:101240000800019000BF00BF102002900020039012
:10125000022004900320059002A90748FEF778FFBA
:10126000002202211C20FFF7AAF91C20FFF79AF99F
:1012700006B010BD00100240000C014030B504461D
:101280000D4635B1042D0BD0082D10D00C2D1CD1DE
:1012900014E02068C06840F002002168C86015E0D2
:1012A0002068C06840F004002168C8600EE0206833
:1012B000C06840F008002168C86007E02068C06886
:1012C00040F010002168C86000E000BF00BF0122AC
:1012D0002946206800F08AFB2068006840F0010081
:1012E00021680860002030BD10B504462068006900
:1012F000C0F34000D8B12068C068C0F34000B0B16E
:101300006FF0020021680861012020772068806961
:1013100000F0030018B12046FFF77EFE05E02046EE
:1013200000F0ADF8204600F0ABF8002020772068F0
:101330000069C0F38000D8B12068C068C0F38000A5
:10134000B0B16FF0040021680861022020772068A6
:10135000806900F4407018B12046FFF75DFE05E09B
:10136000204600F08CF8204600F08AF80020207714
:1013700020680069C0F3C000D8B12068C068C0F31D
:10138000C000B0B16FF00800216808610420207728
:101390002068C06900F0030018B12046FFF73CFE4A
:1013A00005E0204600F06BF8204600F069F80020C8
:1013B000207720680069C0F30010D8B12068C068A9
:1013C000C0F30010B0B16FF0100021680861082070
:1013D00020772068C06900F4407018B12046FFF7FC
:1013E0001BFE05E0204600F04AF8204600F048F8D1
:1013F000002020772068006900F0010058B12068C3
:10140000C06800F0010030B16FF001002168086190
:10141000204600F037F820680069C0F3C01058B1CA
:101420002068C068C0F3C01030B16FF08000216840
:1014300008612046FFF78BFC20680069C0F380102C
:1014400058B12068C068C0F3801030B16FF0400020
:1014500021680861204600F065F820680069C0F343
:10146000401058B12068C068C0F3401030B16FF030
:101470002000216808612046FFF76AFC10BD704714
:10148000704700001049097801F08001D1B90E4978
:10149000097801F04001A9B10B49097801F03F0139
:1014A0003F290AD10849097841F08001064A1170A4
:1014B0004FF6FF71054A116004E003490978491CA1
:1014C000014A11707047000004000020080000204D
:1014D0000246002300BF92F83C00012801D10220FF
:1014E0007047012082F83C0000BF31B1042907D0C9
:1014F000082908D00C290CD108E01068436B09E0DA
:101500001068836B06E01068C36B03E01068036C1F
:1015100000E000BF00BF00BF002082F83C0000BF19
:101520001846DDE7704700BFFEE7000000B585B054
:1015300000BF1D48806940F020001B4988610846B3
:10154000806900F02000009000BF00BF00BF084687
:10155000806940F0040088610846806900F004005A
:10156000009000BF00BF00BF0846806940F008003F
:1015700088610846806900F00800009000BF00BF45
:1015800000224FF400410948FEF774FF4FF4004079
:101590000190012002900220049001A90348FEF767
:1015A000D7FD05B000BD000000100240000801405A
:1015B00000B58BB04FF0804022490860472048605A
:1015C0000021204881603C21C160002101618161CE
:1015D000FFF7F0FB18B1C9211BA000F0ECFA4FF4A3
:1015E0008050079007A91748FFF77CFC18B1CF215E
:1015F00015A000F0E0FA1348FFF7EEFD18B1D42172
:1016000011A000F0D8FA00200590069005A90D4819
:10161000FFF79FFB18B1DB210BA000F0CCFA0020F4
:10162000019001200290002003900490042201A95F
:101630000448FFF761FD18B1E42103A000F0BBFAF4
:101640000BB000BD1C0000202E2E2F5372632F6D97
:1016500061696E2E6300000000B58BB023482449F9
:10166000086000204860002121488160C16001615C
:101670008161FFF79FFB18B1F9211EA000F09BFAD2
:101680004FF48050079007A91948FFF72BFC18B1B9
:10169000FF2118A000F08FFA1548FFF79DFD20B13B
:1016A0004FF4827113A000F086FA00200590069096
:1016B00005A90F48FFF74DFB20B140F20B110DA01B
:1016C00000F079FA002001900120029000200390A0
:1016D0000490002201A90648FFF70EFD20B14FF447
:1016E0008A7104A000F067FA0BB000BD000400404E
:1016F0005C0000202E2E2F5372632F6D61696E2EB9
:101700006300000000B587B0174818490860002042
:101710004860002115488160C16001618161FFF767
:1017200049FB20B14FF4947111A000F044FA4FF43A
:101730008050039003A90D48FFF7D4FB20B14FF46C
:1017400097710BA000F037FA00200190029001A9D8
:101750000648FFF7FEFA20B140F2351104A000F070
:101760002AFA07B000BD0000000800409C000020DD
:101770002E2E2F5372632F6D61696E2E6300000051
:1017800000BFFEE77047000002480068C0F3022077
:10179000704700000CED00E010B5002807DA0A07DA
:1017A000140E054A00F00F031B1FD45403E00A0770
:1017B000130E024A135410BD18ED00E000E400E0DF
:1017C0007047000008B508490968C9084FF47A72E3
:1017D000B1FBF2F14143009100BF00BF00994A1EE6
:1017E00000920029F9D108BD00000020704710B513
:1017F000FEF74CFEFFF7A7FA10BD000010B590B041
:1018000001200690000407900020089001200A9013
:1018100002200D90C1030E914FF4E0110F9106A824
:10182000FFF742F818B19C2114A000F0C4F90F2072
:10183000019002200290002003904FF480600490F9
:1018400000200590022101A8FEF70CFF18B1AA2183
:101850000AA000F0B0F9FEF7D7FF4FF47A71B0FBA1
:10186000F1F42046FFF755FA0420FFF73DFA002275
:101870001146501EFEF7A3FE10B010BD2E2E2F53A2
:1018800072632F6D61696E2E63000000114800685D
:1018900040F001000F490860084640680E490840C2
:1018A0000C494860084600680C490840094908602E
:1018B0000846006820F4802008600846406820F44C
:1018C000FE0048604FF41F008860C80304490860A8
:1018D00070470000001002400000FFF8FFFFF6FE16
:1018E00008ED00E07FB505460C464FF080401549F5
:1018F00008600846446000218160C5600161FFF70F
:101900006BFC0020009001200190002002900390C9
:10191000042269460B48FFF7EFFB04210948FFF753
:10192000ADFC08480068C06840F00100054909683E
:10193000C860002211461C20FEF741FE1C20FEF765
:1019400031FE7FBD1C00002010B50248FFF7CCFC23
:1019500010BD00001C00002010B50248FFF7C4FCB9
:1019600010BD00005C00002010B50248FFF7BCFC71
:1019700010BD00009C00002000220268184B984215
:1019800008D0B0F1804F05D0164B984202D0164BCC
:10199000984203D122F070024B681A43104B9842D0
:1019A00008D0B0F1804F05D00E4B984202D00E4BBC
:1019B000984203D122F44072CB681A4322F080028D
:1019C0004B691A4302608B68C3620B688362044BE5
:1019D000984201D10B690363012343617047000002
:1019E000002C0140000400400008004030B50023F6
:1019F000012404FA01F3046A9C430462046A02FAB3
:101A000001F52C43046230BD30B50C4600218168DD
:101A100021F47F4142EA032525432943816030BDFB
:101A20000A460021816821F0700142F00703194342
:101A30008160704730B50B46144600210022026ACF
:101A4000056A25F001050562816921F0F00141EA8E
:101A5000041122F00A021A438161026230BD0000C3
:101A600070B50C46154600210022066A26F00106D4
:101A700006628169026A124EB04208D0B0F1804F0E
:101A800005D0104EB04202D00F4EB04201D1012617
:101A900000E000261EB121F00301294301E041F0DE
:101AA000010121F0F001F02606EA0316314322F08D
:101AB0000A0204F00A0632438161026270BD00002E
:101AC000002C0140000400400008004030B50B46E7
:101AD000144600210022056A25F01005056281697F
:101AE000026A21F4704141EA043122F0A00242EA84
:101AF00003128161026230BD70B50C4615460021AB
:101B00000022066A26F0100606628169026A21F444
:101B1000407141EA052121F470414FF4704606EA14
:101B20000336314322F0A002A02606EA041632430F
:101B30008161026270BD70B50C461546002100221D
:101B4000066A26F480760662C169026A21F0030102
:101B5000294321F0F001F02606EA0316314322F46E
:101B600020624FF4206606EA04263243C161026215
:101B700070BD70B50C46154600210022066A26F499
:101B800080560662C169026A21F4407141EA05216A
:101B900021F470414FF4704606EA0336314322F4D3
:101BA00000524FF4005606EA04363243C161026225
:101BB00070BD00BFFEE700BFFEE702E008C8121FCD
:101BC00008C1002AFAD170477047002001E001C126
:101BD000121F002AFBD1704710B504460420FFF7FE
:101BE00083F80148047010BD0C000020FEF75AFC79
:101BF00000BFFFF703FEFFF799FCFFF72DFDFFF78E
:101C000081FDFFF7D5FC4820FFF7E6FF04211148CE
:101C1000FFF734FB0F480068C06840F001000D4931
:101C20000968C86047214FF6FF70FFF75BFE0FE0C1
:101C30004FF400410848FEF719FC0848007800F00E
:101C4000800028B100BF00BF00BF0020034908701A
:101C5000EEE700001C000020000801400400002006
:101C6000000000000000000001020304060708094C
:101C70000000000001020304981C0008000000207E
:101C80001C000000BA1B0008B41C00081C00002047
:101C9000C4040000CA1B000800A24A04000000009F
:101CA0000000000000000000000000001000000024
:041CB000010000002F
:04000005080000ED02
:00000001FF
