:020000040800F2
:100000005806002001010008752900088F26000805
:1000100071290008B1010008253300080000000024
:10002000000000000000000000000000812A00081D
:10003000FD04000800000000B1290008792B000829
:100040001B0100081B0100081B0100081B01000820
:100050001B0100081B0100081B0100081B01000810
:100060001B0100081B0100081B0100081B01000800
:100070001B0100081B0100081B010008B104000857
:10008000C10400081B0100081B0100081B01000837
:10009000153300081B0100081B0100081B010008A4
:1000A0001B0100081B0100081B0100081B010008C0
:1000B000512E00081B0100081B0100081B0100084D
:1000C0001B0100081B0100081B0100081B010008A0
:1000D0001B01000865320008BD3200081B01000842
:1000E0001B0100081B0100081B010008DFF80CD0F1
:1000F00000F04CF800480047013400085806002082
:100100000648804706480047FEE7FEE7FEE7FEE7B1
:10011000FEE7FEE7FEE7FEE7FEE7FEE7192C000834
:10012000ED000008202A04DB203A21FA02F0002129
:10013000704721FA02F3D040C2F1200291400843F7
:100140001946704740EA01039B0703D009E008C93C
:10015000121F08C0042AFAD203E011F8013B00F88C
:10016000013B521EF9D27047D2B201E000F8012BD8
:10017000491EFBD270470022F6E710B513460A4627
:1001800004461946FFF7F0FF204610BD064C074D08
:1001900006E0E06840F0010394E807009847103457
:1001A000AC42F6D3FFF7A6FF3037000850370008FF
:1001B00000BFFEE700B58BB00020069040F2F7705C
:1001C00001904FF40840029040F2FF7003904FF40A
:1001D0007840049001200A90002005900690079036
:1001E00001200890099001A9094800F0E3FA20B124
:1001F00040F2462107A003F0E8F80548006840698E
:1002000040F002000249096848610BB000BD0000DF
:100210002C0000202E2E2F5372632F6D61696E2EDD
:10022000630000002DE9F04104460D46002700263A
:100230000DB9666B00E0A66B206800F5D87000EB86
:100240000510006800F00400B060B06858B920687C
:1002500000F5D87000EB0510006840F2FF7101EA6C
:10026000505030600AE0206800F5D87000EB0510AF
:1002700000686FF0604101EAD0007060206800F50E
:10028000D87000EB0510006800F00200F0602068F4
:1002900000F5D87000EB0510406800F00F003061E9
:1002A0003562206800F5D87000EB05104068C0F397
:1002B0000720F061206800F5D87000EB0510806819
:1002C0003075206800F5D87000EB05108068010AD1
:1002D0007175206800F5D87000EB05108068010C7E
:1002E000B175206800F5D87000EB05108068000E2D
:1002F000F075206800F5D87000EB0510C068307606
:10030000206800F5D87000EB0510C068010A71760E
:10031000206800F5D87000EB0510C068010CB176BC
:10032000206800F5D87000EB0510C068000EF0766C
:100330004DB920202168C8602068406920F00A007B
:100340002168486108E02020216808612068406930
:1003500020F050002168486194F83C70222F01D0B1
:10036000322F05D12068406920F40F402168486190
:10037000CDB994F83C00422804D0622806D07228F7
:100380000CD107E0122084F83C000BE0322084F806
:100390003C0007E0522084F83C0003E0012084F890
:1003A0003C0000BF19E094F83C00522804D06228B9
:1003B00006D072280CD107E0122084F83C000BE034
:1003C000222084F83C0007E0422084F83C0003E04F
:1003D000012084F83C0000BF00BF204600F020FD53
:1003E0000020BDE8F081000009480A4908600A4879
:1003F00048630A4808630820096B0861042005491E
:10040000096B886000200349096BC86070470000D1
:10041000006400402C00002014020020F80100209D
:1004200010B504462068406920F001002168486149
:1004300094F83C00122805D12068406920F40F4050
:100440002168486194F83C00422804D0522806D024
:1004500072280CD107E0222084F83C000BE0322007
:1004600084F83C0007E0622084F83C0003E00120AF
:1004700084F83C0000BF00BF204600F0E7FC0020ED
:1004800010BD10B5014600238C7B0022012204E040
:10049000885C1844C3B2501CC2B20E2AF8DB9C42DE
:1004A00004D10878552801D1002010BD0120FCE7B7
:1004B00010B5024800F0E8FC10BD0000300100203B
:1004C00010B5024800F0E0FC10BD000074010020EF
:1004D00030B590F840500124AC40C56B6C600468A6
:1004E00063604468102C04D10468A2600468E16071
:1004F00003E00468A1600468E26030BD704770B535
:100500000446A6B2002505E04FF47A7000F006F824
:10051000681C85B2B542F7DB70BD000070B50346BC
:1005200000224FF0E02675690D4E367803FB06F485
:100530004FF0E026B16910E04FF0E026B069884244
:100540000BD0884202D20E1A324402E02E1A0E4418
:1005500032440146A24200D300E0EDE700BF70BD87
:10056000280000200021074AD1610749096941F0AC
:100570000401054A11611146096941F04001116108
:100580007047000038020020002002400021074A86
:10059000D1610749096941F00201054A116111461B
:1005A0004861096941F0400111617047380200203B
:1005B000002002400022054BDA61054A126942F030
:1005C0000102034B1A6101807047000038020020CD
:1005D0000020024000201E49C96801F0100139B115
:1005E0001C49C96941F002011A4AD16140F010006A
:1005F0001749C96801F0040139B11649C96941F0C8
:100600000101144AD16140F004001149C96901F0A7
:10061000010169B10F49C96941F004010D4AD16175
:1006200000BF0B49C96921F00101094AD16100BF2E
:1006300000BF40F20111884206D10549C96921F085
:100640000101034AD16101E00149C86000BF704760
:10065000002002403802002070B5044600F0D8FFA8
:10066000054609E0601C38B124B100F0D1FF401B01
:10067000A04201D9032070BD1248C06800F00100FB
:100680000028EFD10F48C06800F0200020B100BF63
:1006900020200C49C86000BF0A48C06800F0100064
:1006A00048B90848C06900F0010020B90548C06891
:1006B00000F0040018B1FFF78DFF0120DBE70020F8
:1006C000D9E700000020024030B585B004460D4651
:1006D0000020009001900394281B401C800A049085
:1006E00000BF694601A800F023FD0028F9D105B03C
:1006F00030BD01460868704770B504460D4600F0ED
:10070000D1FD04F2FF312046FFF7DEFF2A46002329
:100710002146022000F06EFD00F062FD70BD30B594
:10072000034614781CB954780CB9D4780CB9052058
:1007300017E0032491FBF4F49C4201DB042010E059
:100740004C00032594FBF5F49C4201DB002008E0FB
:100750004C00032594FBF5F49C4201DB012000E0F2
:10076000022030BD10B503460A46FD20002100BF1F
:1007700005E0545C844200DA505C4C1CE1B29942C2
:10078000F7DB10BD0A4A527B02F001020270084AF0
:10079000527BC2F340024270054A527BC2F3800290
:1007A0008270034A527BC2F3C002C27070470000DD
:1007B000B801002030B5024600230C7D012000FA6C
:1007C00004F31068D0F8000220F47C5001254C6A34
:1007D00045EA042420431468C4F800021068D0F8E5
:1007E0001C0298431468C4F81C02C869E8B9106870
:1007F000D0F80C0298431468C4F80C02888880B2C0
:100800008C8940EA0444106800F510704D6940F886
:100810003540088880B20C8940EA0444106800F52D
:1008200010704D6900EBC5004460C86901281DD1F6
:100830001068D0F80C0218431468C4F80C028888B9
:1008400080B20C8840EA0444106800F510704D69CD
:1008500040F83540888980B20C8940EA0444106829
:1008600000F510704D6900EBC5004460886938B927
:100870001068D0F8040298431468C4F8040206E033
:100880001068D0F8040218431468C4F80402086918
:1008900038B91068D0F8140298431468C4F81402E8
:1008A00006E01068D0F8140218431468C4F8140263
:1008B000086A012806D11068D0F81C021843146891
:1008C000C4F81C021068D0F8000220F0010014687F
:1008D000C4F80002002030BD704700002DE9F0414F
:1008E0000446002500260027A8462068C068C0F3FB
:1008F000001520684069C0F3C0062DB126B148F448
:10090000007810202168C86020680069C0F30015D5
:1009100020684069C0F380162DB126B148F4806884
:100920001020216808612068406900F0010000285B
:100930003BD0206880687A490840884201D1012074
:1009400000E000200546206880687649084088421B
:1009500001D1012000E0002006462068806872492D
:100960000840884201D1012000E0002007460DB96F
:1009700006B9D7B120688068C0F340052068806858
:10098000C0F340262068806800F001070DB906B961
:100990001FB12046FFF744FD01E048F400682068DD
:1009A000806862490843216888602068C06800F058
:1009B000030520684069C0F3400625B11EB100213F
:1009C0002046FFF72FFC2068006900F0030520682F
:1009D0004069C0F3001625B11EB101212046FFF782
:1009E00021FC206C40EA080020642068806900F047
:1009F000010520684069C0F3002620684069C0F303
:100A0000C0372DB126B11FB1206C40F00100206429
:100A100020688069C0F3400520684069C0F3402623
:100A200020684069C0F3C0372DB126B11FB1206CDA
:100A300040F00200206420688069C0F380052068CF
:100A40004069C0F3802620684069C0F3C0372DB1EB
:100A500026B11FB1206C40F004002064206880693A
:100A600000F0700008B9012000E000200546206871
:100A70004069C0F3C02620684069C0F3C03795BB09
:100A80008EB387B32068806900F07005402D1BD0BD
:100A900006DC102D09D0202D0CD0302D24D10EE0F5
:100AA000502D16D0602D1FD118E0206C40F00800AA
:100AB00020641AE0206C40F01000206415E0206CE7
:100AC00040F02000206410E0206C40F040002064E2
:100AD0000BE0206C40F08000206406E0206C40F4C5
:100AE0008070206401E007E000BF00BF20688069DB
:100AF00020F0700021688861206C78B104202168A2
:100B00004860012084F83C002068406948F65B7129
:100B10008843216848612046FFF7DEFEBDE8F0818A
:100B20000100000400010008000001100905010097
:100B30002DE9F041044600270026002514B90120C4
:100B4000BDE8F08194F83C0028B9002084F83D000D
:100B5000204600F0A5F8022084F83C0020680068D8
:100B600020F00200216808602068006840F0010061
:100B70002168086000F04CFD06460EE000F048FDDC
:100B8000801B0A2809D9032084F83C0000BF0020FC
:100B900084F83D0000BF0320D2E72068406800F0E1
:100BA00001000028EAD02068406800F00100002819
:100BB00067D0A069012802D145F0800501E025F049
:100BC0008005E069012802D145F0400501E025F0EB
:100BD0004005206A012802D145F0200501E025F0FA
:100BE0002005606A012802D145F0100501E025F0DA
:100BF0001005A06A012802D145F0080501E025F0A2
:100C00000805E06A012802D145F0040501E025F05D
:100C100004052068006820F0FC0028432168086073
:100C2000D4E9020108432169084361690843616806
:100C3000491E08432168C8612068006820F001004F
:100C40002168086000F0E4FC06460EE000F0E0FCDD
:100C5000801B0A2809D9032084F83C0000BF00202B
:100C600084F83D0000BF03206AE72068406800F078
:100C700001000028EAD12068406800F0010000B9B6
:100C80000127012F06D100202064012084F83C00B8
:100C9000002055E7042084F83C00012050E70000C4
:100CA00010B586B0044618492068884229D100BF93
:100CB0001648C06940F000701449C8610846C06910
:100CC00000F00070019000BF00BFC8140290002027
:100CD0000390049002A90E4800F0FAFA4FF48050F5
:100CE0000290022003900320059002A9084800F01A
:100CF000EFFA00221146142000F017FD142000F036
:100D000007FD06B010BD0000006400400010024066
:100D100000080140024689B992F83C0022280BD015
:100D200092F83C00422807D092F83C00622803D099
:100D300092F83C00722801D102207047012911D19C
:100D400092F83C0032280BD092F83C00522807D091
:100D500092F83C00622803D092F83C00722801D13E
:100D60000220EAE700BF92F83D00012801D10220ED
:100D7000E3E7012082F83D0000BFC9B992F83C00CA
:100D8000122804D0322806D052280CD107E0422085
:100D900082F83C000BE0622082F83C0007E0722001
:100DA00082F83C0003E0222082F83C0000BF19E0FA
:100DB00092F83C00122804D0222806D042280CD1F8
:100DC00007E0522082F83C000BE0622082F83C00F1
:100DD00007E0722082F83C0003E0322082F83C00F9
:100DE00000BF00BF002010641068406948F601731E
:100DF00018431368586100BF002082F83D0000BF0F
:100E000031B91068406940F00A001368586105E084
:100E10001068406940F050001368586100208CE76A
:100E20000749097859B9416B4968064A914206D188
:100E3000416B897D044A11700121014A117070478C
:100E40000600002000F1FE1809000020704701464E
:100E500000200A68126822F00E020B681A600A6805
:100E6000126822F001020B681A6091F840300122EA
:100E70009A40CB6B5A60012281F8212000BF0022EA
:100E800081F8202000BF704770B50446E06B05680C
:100E90002068066894F84010042088402840002804
:100EA00046D006F00400002842D02068006800F018
:100EB000200028B92068006820F00400216808603C
:100EC00057492068884201D1042027E05449143151
:100ED0002068884201D1402020E051492831206813
:100EE000884201D1001519E04D493C312068884203
:100EF00002D14FF4804011E04949503120688842C6
:100F000002D14FF4802009E04549643120688842CD
:100F100002D14FF4800001E04FF080604049083971
:100F20004860E06A00287AD02046E16A884776E087
:100F300094F84010022088402840A0B306F0020038
:100F400088B32068006800F0200040B9206800687D
:100F500020F00A0021680860012084F8210030494F
:100F60002068884201D1022028E02D4914312068F0
:100F7000884201D1202021E0294928312068884277
:100F800001D140151AE026493C312068884202D13F
:100F90004FF4005012E0224950312068884203D1BA
:100FA0004FF400300AE017E01D49643120688842A0
:100FB00002D14FF4001001E04FF0007018490839D9
:100FC000486000BF002084F8200000BFA06A30B352
:100FD0002046A16A884722E094F840100820884003
:100FE0002840E0B106F00800C8B12068006820F091
:100FF0000E002168086094F8401001208840E16BE1
:1010000048600120A06384F8210000BF002084F81C
:10101000200000BF206B10B12046216B884770BDB7
:10102000080002400146002209B901207047184B10
:101030000868C01A1423B0FBF3F080000864144859
:101040000838C863022081F821000868026843F666
:10105000F0708243D1E901031843CB6818430B6950
:1010600018434B6918438B691843CB6918430243F3
:101070000868026000208862C86208634863886369
:10108000012081F82100002081F8200000BFCDE779
:10109000080002402DE9F04104460D4616461F4661
:1010A0004FF0000800BF94F82000012802D1022070
:1010B000BDE8F081012084F8200000BF94F82100F1
:1010C00001282CD1022084F821000020A063206890
:1010D000006820F00100216808603B46324629463E
:1010E0002046FFF7F5F9E06A30B12068006840F06B
:1010F0000E00216808600BE02068006820F0040002
:10110000216808602068006840F00A0021680860D3
:101110002068006840F001002168086006E000BF18
:10112000002084F8200000BF4FF002084046BFE7CF
:101130002DE9F04104460E460127002500BF264850
:10114000007E012802D10220BDE8F0810120224961
:10115000087600BF2068022813D14CF25030FFF708
:101160007BFA90BB0120FFF7FDF94CF25030FFF7FE
:1011700073FA07461948006920F00400174908610E
:1011800023E04CF25030FFF767FAF0B94FF0FF3030
:101190003060A56812E02846FFF7F8F94CF25030AD
:1011A000FFF75AFA07460D48006920F002000B4984
:1011B00008610FB1356007E005F58065D4E90210DC
:1011C00001EB8020A842E6D800BF00BF0020024902
:1011D000087600BF3846B7E73802002000200240FA
:1011E0000348006940F08000014908610020704711
:1011F000002002402DE9FE4F05468B4617469846D3
:10120000012600240020029000BF2448007E01280F
:1012100002D10220BDE8FE8F01202049087600BFE0
:101220004CF25030FFF718FA064686BB012D02D16A
:101230000120029006E0022D02D10220029001E07E
:101240000420029000241EE02201B946C24648460E
:101250005146FEF767FF80B20190022000FB04B008
:1012600000900199FFF7A6F94CF25030FFF7F4F91E
:1012700006460B48006920F001000949086106B1E3
:1012800004E0601CC4B202988442DDDB00BF00BFF2
:1012900000200249087600BF3046BBE73802002034
:1012A000002002400748006900F0800028B106488D
:1012B000044948600548486001E00120704700206B
:1012C000FCE700000020024023016745AB89EFCD19
:1012D0002DE9F84703460024002000258446002716
:1012E00000226EE14FF0010808FA02F4D1F8008004
:1012F00008EA0400A0427DD1DFF8D0A2D1F8048032
:10130000A8EB0A09D0453AD014DCB8F1030F50D04D
:1013100009DCB8F1000F31D0B8F1010F1CD0B8F1E1
:10132000020F49D120E0B8F1110F18D0B8F1120F17
:1013300042D11EE0B9F5881F25D006DCB9F5803F03
:1013400020D0B9F5801F37D11AE0B9F5001F18D0A9
:10135000B9F5041F30D117E0D1F80CC02DE0D1F859
:101360000C8008F1040C28E0D1F80C8008F1080C7E
:1013700023E0D1F80C8008F10C0C1EE000BF00BF88
:1013800000BF00BF00BF00BFD1F80880B8F1000F58
:1013900002D14FF0040C0BE0D1F80880B8F1010F36
:1013A00003D14FF0080C1C6102E04FF0080C5C61A7
:1013B00003E04FF0000C00E000BF00BFFF2801D8A1
:1013C000984601E003F104084646FF2802D84FEA98
:1013D000820803E0A2F108084FEA88084746D6F8D9
:1013E00000804FF00F0909FA07F928EA09080CFAFA
:1013F00007F900E088E048EA0908C6F80080D1F85B
:10140000048008F08058B8F1805F7DD100BFDFF81C
:10141000C081D8F8188048F00108DFF8B491C9F805
:101420001880C846D8F8188008F00108CDF8008068
:1014300000BF00BF4FEAB9384FEA920958F8295067
:101440004FEA82784FEA18794FF00F0808FA09F846
:1014500025EA0805DFF87C81434502D14FF00008FA
:1014600016E0DFF87481434502D14FF001080FE028
:10147000DFF86881434502D14FF0020808E0DFF849
:101480006081434502D14FF0030801E04FF00408AA
:101490004FEA82794FEA197908FA09F848EA05050E
:1014A000DFF840814FEA920948F82950D1F80480CA
:1014B00008F48038B8F5803F0AD1DFF82C81D8F8DD
:1014C000008048EA0008DFF82091C9F8008009E0B0
:1014D000DFF81481D8F8008028EA0008DFF80891C6
:1014E000C9F80080D1F8048008F40038B8F5003F4E
:1014F00010D1DFF8F48008F10408D8F8008048EA39
:101500000008DFF8E49000E05AE009F10409C9F8A6
:1015100000800DE0DFF8D08008F10408D8F80080E2
:1015200028EA0008DFF8C09009F10409C9F8008032
:10153000D1F8048008F48018B8F5801F0ED1DFF8C8
:10154000A88008F10808D8F8008048EA0008DFF809
:10155000989009F10809C9F800800DE0DFF888804B
:1015600008F10808D8F8008028EA0008DFF8789029
:1015700009F10809C9F80080D1F8048008F40018BE
:10158000B8F5001F0ED1DFF8608008F10C08D8F81C
:10159000008048EA0008DFF8509009F10C09C9F80A
:1015A00000800DE0DFF8408008F10C08D8F80080DA
:1015B00028EA0008DFF8309009F10C09C9F800802A
:1015C000521C102AFFF48EAEBDE8F88700001110FF
:1015D0000010024000080140000C014000100140D2
:1015E00000140140080001400004014002469368D5
:1015F0000B400BB1012000E000207047C2684A4058
:10160000C26070470AB1016101E00B0403617047D9
:10161000014800687047000024000020024800686C
:10162000401C0149086070472400002010B508489C
:10163000006840F0100006490860032000F0B4F88C
:10164000002000F007F800F019F8002010BD00009D
:101650000020024070B50446074800684FF47A71D4
:10166000B0FBF1F5284600F02CFC00222146501E6C
:1016700000F05BF8002070BD0000002008B500BF3E
:101680002148806940F001001F498861084680694F
:1016900000F00100009000BF00BF032000F084F8BC
:1016A000002211466FF00B0000F03FF800221146B7
:1016B0006FF00A0000F039F8002211466FF00900BF
:1016C00000F033F800221146501F00F02EF80022DF
:1016D0001146101F00F029F800221146901E00F05C
:1016E00024F800221146501E00F01FF800BF0748E2
:1016F000406820F0E060054948600846406840F0D6
:101700000070486000BF08BD0010024000000140AA
:1017100000BF00F01F02012191404209920002F136
:10172000E022C2F8001100BF70472DE9F05F80464B
:101730000D461646002701F01FF9074639462A468E
:10174000334601F00700C0F1070ABAF1040F02D9CD
:101750004FF0040A01E0C0F1070AD14600F1040A83
:10176000BAF1070F02D24FF0000A01E0A0F1030A1C
:10177000D4464FF0010A0AFA09FAAAF1010A0AEA64
:10178000020A0AFA0CFA4FF0010B0BFA0CFBABF150
:10179000010B0BEA030B4AEA0B042146404601F019
:1017A000F3F8BDE8F09F000000BF00F00702064B11
:1017B00019684FF6FF031940044B0B4343EA02211B
:1017C000014B196000BF70470CED00E00000FA0506
:1017D00070B504460D4600266248006800F0070018
:1017E000A8420ED25F48006820F0070028435D49F8
:1017F00008600846006800F00700A84201D00120F8
:1018000070BD207800F00200022807D156484068D9
:1018100020F0F000A168084353494860207800F0A8
:10182000010000285DD06068012806D14E4800689C
:1018300000F4003090B90120E2E76068022806D188
:101840004948006800F0007040B90120D8E74648D8
:10185000006800F0020008B90120D1E74248406862
:1018600020F00300616808433F494860FFF7D0FE5D
:1018700006466068012810D108E0FFF7C9FE801B0A
:1018800041F28831884201D90320B9E736484068DF
:1018900000F00C000428F0D123E06068022810D189
:1018A00008E0FFF7B5FE801B41F28831884201D97C
:1018B0000320A5E72C48406800F00C000828F0D170
:1018C0000FE008E0FFF7A4FE801B41F28831884258
:1018D00001D9032094E72448406800F00C00002858
:1018E000F0D12048006800F00700A8420ED91D483A
:1018F000006820F0070028431A490860084600687D
:1019000000F00700A84201D0012079E7207800F01C
:101910000400042807D11448406820F4E060E1681E
:10192000084311494860207800F00800082808D1D1
:101930000D48406820F46050216940EAC1000A491E
:10194000486000F03DF808494968C1F30311074AAF
:10195000515CC840064908600020FFF77BFE00206C
:101960004EE700000020024000100240E036000870
:1019700000000020014800687047000000000020BF
:1019800000B5FFF7F7FF04494968C1F30221034A94
:10199000515CC84000BD000000100240F036000855
:1019A00000B5FFF7E7FF04494968C1F3C221034AC4
:1019B000515CC84000BD000000100240F036000835
:1019C000F0B585B00FF2700C9CE8E01001A8A0E81B
:1019D000E0101DA52D6800950021002400220023A1
:1019E00000201A4D696801F00C05FDB1042D02D0EC
:1019F000082D1AD101E016481AE001ADC1F3834663
:101A0000AB5D01F480355DB1104D6D68C5F34045A7
:101A10001DF805400E4DB5FBF4F505FB03F202E0A1
:101A20000C4D03FB05F2104602E000BF084800BF62
:101A300000BF05B0F0BD0000020304050607080959
:101A40000A0B0C0D0E0F10100102000000100240D6
:101A500000127A0000093D00F8B504460025207800
:101A600000F00100002878D0F848406800F00C0031
:101A700004280CD0F548406800F00C00082811D16B
:101A8000F248406800F48030B0F5803F0AD1EF485A
:101A9000006800F4003000285FD0606800285CD146
:101AA0000120F8BD00BF6068B0F5803F06D1E7486F
:101AB000006840F48030E549086028E0606858B963
:101AC000E248006820F48030E04908600846006879
:101AD00020F4802008601AE06068B0F5A02F0BD1D8
:101AE000DA48006840F48020D84908600846006859
:101AF00040F4803008600AE0D448006820F4803068
:101B0000D24908600846006820F48020086000BFC1
:101B1000606888B1FFF77CFD054606E0FFF778FDB9
:101B2000401B642801D90320BBE7C848006800F4C3
:101B300000300028F2D010E0FFF76AFD054606E00D
:101B4000FFF766FD401B642801D90320A9E7BF48C1
:101B5000006800F400300028F2D1207800F0020084
:101B6000022857D1B948406800F00C0050B1B7487E
:101B7000406800F00C00082818D1B448406800F410
:101B8000803098B9B148006800F0020020B12069A7
:101B9000012801D0012084E7AC48006820F0F8005B
:101BA000616940EAC100A949086033E02069E8B1F1
:101BB0000120A7490860FFF72BFD054606E0FFF767
:101BC00027FD401B022801D903206AE79F480068CF
:101BD00000F002000028F2D09C48006820F0F800D5
:101BE000616940EAC1009949086013E00020984902
:101BF0000860FFF70DFD054606E0FFF709FD401BF5
:101C0000022801D903204CE79048006800F0020048
:101C10000028F2D1207800F0080008282DD1A06912
:101C2000B8B101208B490860FFF7F2FC054606E0D9
:101C3000FFF7EEFC401B022801D9032031E783485F
:101C4000406A00F002000028F2D0012000F004FFFA
:101C500013E000207F490860FFF7DAFC054606E044
:101C6000FFF7D6FC401B022801D9032019E777486B
:101C7000406A00F002000028F2D1207800F0040051
:101C8000042873D100267148C06900F0805070B9F3
:101C900000BF6E48C06940F080506C49C86108467A
:101CA000C06900F08050009000BF00BF01266A4864
:101CB000006800F48070B0B96748006840F4807034
:101CC00065490860FFF7A4FC054606E0FFF7A0FCA5
:101CD000401B642801D90320E3E65F48006800F454
:101CE00080700028F2D000BFE068012806D1574874
:101CF000006A40F001005549086227E0E06858B9E1
:101D00005248006A20F00100504908620846006A03
:101D100020F00400086219E0E06805280BD14B4868
:101D2000006A40F00400494908620846006A40F031
:101D3000010008620AE04548006A20F001004349BA
:101D400008620846006A20F00400086200BFE068EC
:101D5000A0B1FFF75DFC054609E0FFF759FC401B09
:101D600041F28831884202D903209AE622E03748BE
:101D7000006A00F002000028EFD012E0FFF748FCF4
:101D8000054608E0FFF744FC401B41F288318842D9
:101D900001D9032085E62D48006A00F002000028E2
:101DA000F0D1012E05D12948C06920F08050274983
:101DB000C86100BFE069C8B32448406800F00C0067
:101DC000082860D0E069022848D100202049086630
:101DD000FFF71EFC054606E0FFF71AFC401B022831
:101DE00001D903205DE61948006800F00070002862
:101DF000F2D1206AB0F5803F07D11448406820F442
:101E00000030A168084311494860D4E9080108433B
:101E10000E49496821F4741108430C4948600120B7
:101E20000B490866FFF7F4FB054607E02DE0FFF7D6
:101E3000EFFB401B022801D9032032E6034800686B
:101E400000F000700028F2D01FE0000000100240F7
:101E500000004242800442420070004000200C49D1
:101E60000866FFF7D5FB054606E0FFF7D1FB401BF0
:101E7000022801D9032014E60648006800F000702B
:101E80000028F2D101E001200BE6002009E6000065
:101E90000000424200100240042808D14FF0E02127
:101EA000096941F004014FF0E022116107E04FF0B1
:101EB000E021096921F004014FF0E022116170472F
:101EC000704770B504462546681EB0F1807F01D387
:101ED00001200FE0681E4FF0E02148610F214FF014
:101EE000FF3000F051FD00204FF0E0218861072015
:101EF0000861002070BD10B5FFF7E2FF10BD70470C
:101F00007047024600BF92F83C00012801D1022030
:101F10007047012082F83C0000BF022082F83D009B
:101F20001068406820F070001368586010684068BE
:101F30000B681843136858601068806820F08000B0
:101F400013689860106880684B681843136898603D
:101F5000012082F83D0000BF002082F83C0000BF55
:101F600000BFD5E710B504460CB9012010BD94F8A8
:101F70003D0028B9002084F83C00204600F00CF811
:101F8000022084F83D00211D206800F069FF012037
:101F900084F83D000020E9E738B504462068B0F138
:101FA000804F15D100BF0B48C06940F001000949BE
:101FB000C8610846C06900F00100009000BF00BF82
:101FC000002203211C20FFF7B0FB1C20FFF7A0FB21
:101FD00038BD0000001002402DE9F04104460D46D6
:101FE000002600BF94F83C00012802D10220BDE881
:101FF000F081012084F83C0000BF022084F83D00FD
:102000002068866826F0770626F47F46206886607A
:10201000286850283BD00CDC202860D004DC002845
:1020200053D0102865D155E030285DD0402860D1CC
:1020300041E0602835D070280DD0B0F5805F03D026
:10204000B0F5005F55D115E02068806820F00700EA
:10205000216888604EE0D5E902136A68206800F0C4
:1020600039FF2068866826F0770646F077062068F4
:1020700086603FE0D5E902136A68206800F02AFF15
:102080002068806840F480402168886032E0EA6817
:102090006968206800F034FF5021206800F026FFB6
:1020A00028E0EA686968206800F03FFF6021206846
:1020B00000F01CFF1EE0EA686968206800F020FF5D
:1020C0004021206800F012FF14E00021206800F099
:1020D0000DFF0FE01021206800F008FF0AE020212A
:1020E000206800F003FF05E03021206800F0FEFECC
:1020F00000E000BF00BF012084F83D0000BF0020C9
:1021000084F83C0000BF00BF71E7704710B504467B
:1021100020680069C0F34000D8B12068C068C0F3EF
:102120004000B0B16FF00200216808610120207703
:102130002068806900F0030018B12046FFF7E5FF32
:1021400005E0204600F0ADF8204600F0ABF8002096
:10215000207720680069C0F38000D8B12068C0688B
:10216000C0F38000B0B16FF0040021680861022064
:1021700020772068806900F4407018B12046FFF78E
:10218000C4FF05E0204600F08CF8204600F08AF8F5
:102190000020207720680069C0F3C000D8B1206813
:1021A000C068C0F3C000B0B16FF0080021680861DA
:1021B000042020772068C06900F0030018B1204691
:1021C000FFF7A3FF05E0204600F06BF8204600F083
:1021D00069F80020207720680069C0F30010D8B1AA
:1021E0002068C068C0F30010B0B16FF01000216823
:1021F0000861082020772068C06900F4407018B199
:102200002046FFF782FF05E0204600F04AF820460E
:1022100000F048F8002020772068006900F00100F5
:1022200058B12068C06800F0010030B16FF00100C3
:1022300021680861204600F036F820680069C0F384
:10224000C01058B12068C068C0F3C01030B16FF042
:102250008000216808612046FFF751FE2068006970
:10226000C0F3801058B12068C068C0F3801030B14E
:102270006FF0400021680861204600F015F82068E2
:102280000069C0F3401058B12068C068C0F3401026
:1022900030B16FF02000216808612046FFF730FE62
:1022A00010BD704770477047704770B504460025F1
:1022B00020684069C0F3C01594F8390021280ED178
:1022C0006DB12068406920F0800021684861206B72
:1022D00010B1206BFEF7BBFD204600F09EFE20688B
:1022E0004069C0F3801594F83A0022280ED16DB1F0
:1022F0002068406920F0400021684861606B10B19F
:10230000606BFEF7A4FD204600F077FE002070BD54
:10231000704710B504460CB9012010BDA06900B18A
:1023200000E000BF94F8390028B9002084F8380094
:10233000204600F027F8242084F839002068C0687F
:1023400020F400502168C860204600F071FE20682B
:10235000006920F49040216808612068406920F0FD
:102360002A00216848612068C06840F40050216854
:10237000C8600020E063202084F8390084F83A0027
:102380000020CAE710B586B004464B492068884251
:1023900045D100BF4948806940F480404749886181
:1023A0000846806900F48040019000BF00BF4815D6
:1023B0000290022003900320059002A94048FEF7F6
:1023C00087FF4FF48060029000200390049002A9E0
:1023D0003B48FEF77DFF3B483B49086000204860D2
:1023E0000021394881608021C16000210161416183
:1023F0008161C161FEF716FE18B1E42133A000F03F
:10240000E4FF00BF30486063446200BF0022042143
:102410002520FFF78AF92520FFF77AF949E03249AC
:102420002068884245D100BF2448C06940F400308C
:102430002249C8610846C06900F40030019000BF1D
:1024400000BF04200290022003900320059002A9FF
:102450001B48FEF73DFF08200290002003900490E7
:1024600002A91748FEF734FF164814301F490860C8
:102470000020486000211D4881608021C16000214A
:10248000016141618161C161FEF7CCFD20B14FF472
:1024900089710EA000F099FF00BF14486063446288
:1024A00000BF002201212620FFF73FF92620FFF779
:1024B0002FF906B010BD00000038014000100240A6
:1024C0000008014058000240300100202E2E2F53FA
:1024D00072632F73746D3332663178785F68616C24
:1024E0005F6D73702E630000004400407401002093
:1024F00077B581B00446154694F83A00202850D1AB
:10250000029800B115B9012004B070BD00BF94F865
:102510003800012801D10220F6E7012084F83800B4
:1025200000BF0298A062A5850020E063222084F805
:102530003A001D48616B88621C48616BC8621C4888
:10254000616B08630020616B486302AE32682368E8
:10255000191D2B46606BFEF79DFD00BF002000900B
:1025600020680068009020684068009000BF00BFAD
:1025700000BF002084F8380000BF2068C06840F425
:1025800080702168C8602068406940F001002168BF
:1025900048612068406940F040002168486100209F
:1025A000B2E70220B0E70000A72F0008ED2F0008D7
:1025B000572F0008704770472DE9F84304460D4631
:1025C00016461F464FF0000994F8390020285CD1C8
:1025D00005B116B90120BDE8F88300BF94F83800B2
:1025E000012801D10220F6E7012084F8380000BF5D
:1025F0000020E063212084F83900FFF709F88146C4
:10260000A684E6842BE0E08C401EE084A068B0F550
:10261000805F16D14B46002280212046009700F0B3
:10262000EBFD08B10320D6E7A846B8F80000C0F3D8
:10263000080021684860206908B9AD1C0FE06D1CD6
:102640000DE04B46002280212046009700F0D4FD8B
:1026500008B10320BFE715F8010B21684860E08C42
:102660000028D0D14B46002240212046009700F0A0
:10267000C3FD08B10320AEE7202084F8390000BF75
:10268000002084F8380000BFA5E70220A3E700BFC0
:10269000FEE7000070B505462846FEF72AF8044616
:1026A000E0B2FF2813D10B48284410B108280CD100
:1026B00005E0962421462846FEF71EF806E003248E
:1026C00021462846FEF718F800E000BF00BF20466C
:1026D00070BD00000070FFF710B50F480F4908608B
:1026E0000920486000210D488160C1604FF4C0217D
:1026F00001614FF4E001416100218161C16101622A
:1027000041628162C162FEF713FA20B14FF4BB71DE
:1027100003A000F05AFE10BD006400402C00002011
:102720002E2E2F5372632F6D61696E2E6300000091
:1027300008B500BF0E48406940F001000C494861EF
:102740000846406900F00100009000BF00BF002271
:1027500011460F20FEF7E9FF0F20FEF7D9FF0022F8
:1027600011461020FEF7E1FF1020FEF7D1FF08BD53
:102770000010024000B585B000BF3448806940F0C9
:102780002000324988610846806900F020000090EE
:1027900000BF00BF00BF0846806940F004008861A8
:1027A0000846806900F00400009000BF00BF00BF31
:1027B0000846806940F0080088610846806900F09A
:1027C0000800009000BF00BF012220212048FEF732
:1027D00019FF012240211F48FEF714FF002280212B
:1027E0001C48FEF70FFF202001900120029004906A
:1027F00001A91748FEF76CFD4020019000200290CF
:102800000120039001A91248FEF762FD4FF4004039
:10281000019000200290039001A90D48FEF758FD99
:102820003820019000200290039001A90948FEF78A
:102830004FFDC0200190012002900220049001A9C8
:102840000448FEF745FD05B000BD00000010024041
:1028500000080140000C014000B587B04FF08040F7
:10286000184908604720486000211648816040F2FE
:10287000E731C1600021016180218161FFF772FBB6
:1028800020B14FF4C57110A000F09FFD4FF48050AF
:10289000039003A90B48FFF79FFB20B14FF4C871C9
:1028A00009A000F092FD00200190029001A90548C6
:1028B000FFF727FB20B140F2971103A000F085FD40
:1028C00007B000BD700000202E2E2F5372632F6DB5
:1028D00061696E2E6300000010B50C480C49086059
:1028E0004FF496404860002109488160C160016151
:1028F0000C21416100218161C161FFF70AFD20B116
:102900004FF4D57103A000F060FD10BD0038014008
:10291000B00000202E2E2F5372632F6D61696E2E32
:102920006300000010B50C480C4908604FF4E1301A
:102930004860002109488160C16001610C2141614A
:1029400000218161C161FFF7E4FC20B140F2BD11BB
:1029500003A000F03AFD10BD00440040F00000204C
:102960002E2E2F5372632F6D61696E2E630000004F
:1029700000BFFEE77047000002480068C0F3022075
:10298000704700000CED00E010B5002807DA0A07D8
:10299000140E054A00F00F031B1FD45403E00A076E
:1029A000130E024A135410BD18ED00E000E400E0DD
:1029B000704710B50446062C4AD2DFE804F015270C
:1029C00039490341FE2000F0AFFC4FF4FA60FDF7F7
:1029D000A5FD182000F0A8FC4FF4FA60FDF79EFD5D
:1029E000F22000F0A1FC34E0FE2000F09DFC4FF44A
:1029F000FA60FDF793FD162000F096FC4FF4FA60A4
:102A0000FDF78CFDF22000F08FFC22E0FE2000F0AC
:102A10008BFC4FF4FA60FDF781FD152000F084FC7B
:102A20004FF4FA60FDF77AFDF22000F07DFC10E033
:102A3000FE2000F079FC4FF4FA60FDF76FFD08E02E
:102A4000FE2000F071FC4FF4FA60FDF767FD00BF57
:102A500000BF00BF10BD000008B508490968C908DB
:102A60004FF47A72B1FBF2F14143009100BF00BF15
:102A700000994A1E00920029F9D108BD00000020EB
:102A80007047000070B504460020082C33D100BF09
:102A90002EE0374D2D5C092D26D2DFE805F02515F7
:102AA00019211D0511090D00324D6D7815541CE0DA
:102AB000304DAD78155418E02E4DED78155414E0D6
:102AC0002C4D2D79155410E02A4D6D7915540CE0DC
:102AD000284DAD79155408E0264DED79155404E0E4
:102AE000244D2D7B155400E000BF00BF451CE8B20B
:102AF0000828CEDB3BE0002037E01D4D2D5C0B2D80
:102B00002FD2DFE805F02E060A0E12161A1E222614
:102B10002A00184D6D79155424E0164DAD791554E1
:102B200020E0144DED7915541CE0124D2D7A15540A
:102B300018E0104D6D7A155414E00E4DAD7A155411
:102B400010E00C4DED7A15540CE00A4D6D781554DB
:102B500008E0084DAD78155404E0064DED781554A5
:102B600000E000BF00BF451CE8B20828C5DB70BD0F
:102B700018000020B801002010B5FEF74FFDFFF748
:102B8000BAF910BD10B590B001200690000407906E
:102B90000020089001200A9002200D90C1030E91A0
:102BA0004FF4E0110F9106A8FEF756FF20B140F256
:102BB000471115A000F009FC0F200190022002909F
:102BC000002003904FF480600490002005900221C3
:102BD00001A8FEF7FDFD20B140F255110AA000F05A
:102BE000F4FBFEF7C7FE4FF47A71B0FBF1F4204618
:102BF000FFF767F90420FFF74FF900221146501E36
:102C0000FEF793FD10B010BD2E2E2F5372632F6D63
:102C100061696E2E630000001148006840F00100F9
:102C20000F490860084640680E4908400C49486052
:102C3000084600680C4908400949086008460068D1
:102C400020F4802008600846406820F4FE004860B8
:102C50004FF41F008860C8030449086070470000F3
:102C6000001002400000FFF8FFFFF6FE08ED00E054
:102C70002DE9FC4107460D4616463D4903C9CDE9FD
:102C80000001082E38D1002433E06006000E8DF8D4
:102C9000050000208DF80600285D36490968884245
:102CA0001CD8344800680321B0FBF1F0295D88424C
:102CB00003D304208DF8070013E02E48006840007D
:102CC0000321B0FBF1F0295D884203D300208DF889
:102CD000070006E001208DF8070002E002208DF8D1
:102CE00007006423082269463846FFF765FC601C2C
:102CF000C4B2B442C9DB38E0002434E060001030D4
:102D0000C0B28DF8050000208DF80600285D194935
:102D1000096888421CD8174800680321B0FBF1F00D
:102D2000295D884203D304208DF8070013E0114881
:102D3000006840000321B0FBF1F0295D884203D315
:102D400000208DF8070006E001208DF8070002E062
:102D500002208DF807006423082269463846FFF7F1
:102D60002BFC601CC4B2B442C8DBBDE8FC8100008F
:102D700000370008140000207CB505460C460849C1
:102D800003C9CDE9000100208DF806008DF8074049
:102D90006423082269462846FFF70EFC7CBD00002C
:102DA000F83600087CB505460C46064903C9CDE94E
:102DB00000018DF807406423082269462846FFF782
:102DC000FBFB7CBD1037000830B587B005460C46CC
:102DD0001822084901A8FDF7B5F98DF80D408DF8C6
:102DE00015406423122201A92846FFF7E5FB07B02E
:102DF00030BD000018370008F0B587B007460E4612
:102E00001546122102A8FDF7B6F9104903C9CDE90C
:102E100000010A2D02D117208DF8020000240BE0DA
:102E200000216000801D0DF80010315D6000C01DA4
:102E30000DF80010601CC4B2AC42F1DB64231A220E
:102E400069463846FFF7B8FB07B0F0BD0837000801
:102E500010B50248FFF75AF910BD000070000020BD
:102E600000220268184B984208D0B0F1804F05D07C
:102E7000164B984202D0164B984203D122F07002B2
:102E80004B681A43104B984208D0B0F1804F05D0E0
:102E90000E4B984202D00E4B984203D122F440725E
:102EA000CB681A4322F080024B691A4302608B6898
:102EB000C3620B688362044B984201D10B690363C0
:102EC0000123436170470000002C014000040040D2
:102ED0000008004030B50C460021816821F47F4194
:102EE00042EA032525432943816030BD0A4600217B
:102EF000816821F0700142F0070319438160704737
:102F000030B50B46144600210022026A056A25F0FE
:102F100001050562816921F0F00141EA041122F006
:102F20000A021A438161026230BD30B50B46144675
:102F300000210022056A25F0100505628169026AF8
:102F400021F4704141EA043122F0A00242EA031266
:102F50008161026230BD70B506460025746A206842
:102F60004069C0F3C01594F83900212805D125B176
:102F70000020E084204600F050F820684069C0F34B
:102F8000801594F83A00222805D125B10020E0856B
:102F9000204600F032F8E06B40F01000E06320467D
:102FA000FFF7B6F970BD70B505466C6A2868006811
:102FB00000F02000B0B90020E0852068C06820F44F
:102FC00080702168C8602068406920F00100216895
:102FD00048612068406920F0400021684861202055
:102FE00084F83A002046FFF7E5FA70BD70B5044654
:102FF000656A2846FFF7DFFA70BD0168C96821F4E9
:1030000090710268D1600168496921F0010102688C
:103010005161202180F83A1070470168C96821F099
:10302000C0010268D160202180F83910704700008B
:103030002DE9F041044600252068006920F4405045
:10304000E1680843216808612169A0680843616953
:10305000084305432068C06841F20C618843284357
:103060002168C8602068406920F44070A169084365
:10307000216848615F49206888425CD1FEF790FC76
:1030800000EBC00101EB001061688900B0FBF1F6B4
:10309000FEF786FC00EBC00101EB001061688900BF
:1030A000B0FBF1F06421B0FBF1F000EBC00101EBEB
:1030B0000010A6EB8000322101EB00106421B0FB70
:1030C000F1F000F0F006FEF76BFC00EBC00101EB45
:1030D000001061688900B0FBF1F06421B0FBF1F0F1
:1030E00006EB0016FEF75CFC00EBC00101EB0010E4
:1030F00061688900B0FBF1F7FEF752FC00EBC001FC
:1031000001EB001061688900B0FBF1F06421B0FBB5
:10311000F1F000EBC00101EB0010A7EB80003221C1
:1031200001EB00106421B0FBF1F000F00F0030441F
:10313000216888605BE0FEF723FC00EBC00101EB37
:10314000001061688900B0FBF1F6FEF719FC00EB96
:10315000C00101EB001061688900B0FBF1F064214F
:10316000B0FBF1F000EBC00101EB0010A6EB80001A
:10317000322101EB00106421B0FBF1F000F0F00609
:10318000FEF7FEFB00EBC00101EB00106168890057
:10319000B0FBF1F06421B0FBF1F006EB0016FEF796
:1031A000EFFB00EBC00101EB001061688900B0FB90
:1031B000F1F7FEF7E5FB00EBC00101EB00106168E1
:1031C0008900B0FBF1F06421B0FBF1F000EBC0012D
:1031D00001EB0010A7EB8000322101EB001064210D
:1031E000B0FBF1F000F00F00304421688860BDE8CA
:1031F000F0810000003801402DE9F04104460D4601
:1032000017469846069E21E0701CF8B12EB1FEF7D5
:10321000FFF9A0EB0800B04218D92068C06820F47C
:10322000D0702168C8602068406920F001002168E2
:103230004861202084F8390084F83A0000BF00205B
:1032400084F8380000BF0320BDE8F08120680068E2
:103250002840A84201D1012000E00020B842D3D08C
:103260000020F1E738B50024002511480068006807
:10327000C0F30014DCB100BF002000900C480068CF
:10328000006800900A4800684068009000BF00BFD6
:103290000748006805680648006845680448FFF765
:1032A00004F804480068456801200349087038BDE7
:1032B000B0000020300100200400002038B50024B8
:1032C0000025114800680068C0F30014DCB100BF9D
:1032D000002000900C480068006800900A480068D0
:1032E0004068009000BF00BF0748006805680648B6
:1032F000006845680448FEF7D8FF04480068456840
:1033000001200349087038BDF0000020740100203E
:103310000500002010B50248FDF7E0FA10BD0000DE
:103320002C00002000BFFEE770B504462021214894
:10333000FEF75CF901283BD1002220211D48FEF751
:1033400061F90520FDF7DBF8002528E004F001060F
:103350008EB1012220211748FEF754F94FF4167060
:10336000FDF7DCF8002220211248FEF74BF9C820B7
:10337000FDF7D4F810E0012220210E48FEF742F9B3
:10338000C820FDF7CBF8002220210A48FEF73AF9C1
:103390004FF41670FDF7C2F86410681CC5B2082D12
:1033A000D4DB012220210348FEF72CF9002070BD58
:1033B0000120FCE70008014010B5044604EB84013D
:1033C000E031C8B2FFF7B0FF10BD00BFFEE702E07A
:1033D00008C8121F08C1002AFAD1704770470020A0
:1033E00001E001C1121F002AFBD1704710B504464D
:1033F0000420FEF751FD0148047010BD2800002094
:1034000086B0002403253326B04608270020059007
:1034100004904FF00209022003904FF0960BFEF744
:1034200005F9FFF7AFFBFFF7A5F9FFF781F9FFF704
:1034300053F9FFF711FAFFF74FFAFFF773FAFCF7AA
:10344000B9FEFCF7D1FF4820FFF7D0FF01219748D4
:10345000FFF7BAFC9648FFF71DF9C0B2954908601E
:1034600000BF05E09348007801A90855601CC4B26C
:10347000BC42F7DB8E480830FFF70CF9C5B228468E
:10348000FFF79AFF00241BE089490C3101EB84000F
:10349000FDF72FF9884908550846005DFF2802D03E
:1034A0000846005D50B9601C834908550A46115D05
:1034B0007F4A0C3202EB8400FDF71EF9601CC4B297
:1034C000BC42E1DB3A467C497848FFF795FC7B48F3
:1034D0000068C06840F0100078490968C860734807
:1034E0000068C06840F0100070490968C860DCE0FE
:1034F00000217348FDF70EFC202272496F48FEF749
:10350000F7FF202270496948FEF7F2FF6F48007804
:10351000012831D100206D49087040216C48FEF728
:103520006DF86848FCF7ADFF30BB664B01AA6249F5
:103530000820FFF7A7FA01A93846FDF713F98346DB
:10354000604904A8FDF71EF95A48017804AA5846B4
:10355000FDF7E5F881460398814504D04846FFF71A
:1035600028FACDF80C9059465048FFF705FC3A462A
:1035700001A94E48FFF77CFB5648007801287AD114
:10358000002054490870504800785A287AD14E4893
:103590004078A52876D14C488078032804D00828A4
:1035A00010D018286CD100E06BE0002407E0600028
:1035B00008304549085C40490855601CC4B2082CD5
:1035C000F5DB5EE040484079E0B3022846D00428AD
:1035D00002D0062851D113E03B48807A401EB04209
:1035E0000DD0059828B9012005903748807A461EED
:1035F00005E0002005903448807AA0F101083DE004
:1036000016B9B8F1000F1CD02B4810F806A010F81E
:10361000080029498855084600F808A0002409E058
:10362000254A115D224A0C3202EB8400FDF764F852
:10363000601CC4B2082CF3DB08221F491B48FFF7AB
:10364000DBFB1BE0FFE72048857A2846FFF7B4FE46
:10365000294617480830FDF74FF80FE01A48807ADE
:1036600000EB8000400013490860084601681048DC
:10367000FDF742F802E005E002E000BF00BF00E015
:1036800000BF00BF1448007878B1002012490870CC
:10369000124801780548FFF785FB09480068406932
:1036A00040F0020006490968486121E7F000002067
:1036B000009000081400002018000020B000002036
:1036C0002C000020B8010020D801002004000020B8
:1036D000000C014005000020060000200900002029
:1036E00000000000000000000102030406070809B2
:1036F00000000000010203045AA505821211000017
:103700005AA50582100000005AA51382200400006B
:103710005AA50582121000005AA5078200845A019A
:1037200000005AA505821201000000000000000000
:1037300050370008000000202C000000CE330008A5
:103740007C3700082C0000202C060000DE33000827
:1037500000A24A04000000000000007D7DAF646408
:1037600064FF00009600000001020304050607083C
:0C377000090A000000000000000000003A
:04000005080000ED02
:00000001FF
