:020000040800F2
:1000000098040020010100082D1300089B1100082E
:100010002913000849010008A3150008000000008A
:100020000000000000000000000000009513000820
:100030004D01000800000000691300089713000834
:100040001B0100081B0100081B0100081B01000820
:100050001B0100081B0100081B0100081B01000810
:100060001B0100081B0100081B0100081B01000800
:100070001B0100081B0100081B0100081B010008F0
:100080001B0100081B0100081B0100081B010008E0
:100090001B0100081B0100081B0100081B010008D0
:1000A0001B0100081B0100081B0100081B010008C0
:1000B0001B0100088D1400089D1400081B01000896
:1000C0001B0100081B0100081B0100081B010008A0
:1000D0001B0100081B0100081B0100081B01000890
:1000E0001B0100081B0100081B010008DFF80CD0F1
:1000F00000F018F800480047DD15000898040020BB
:100100000648804706480047FEE7FEE7FEE7FEE7B1
:10011000FEE7FEE7FEE7FEE7FEE7FEE73514000830
:10012000ED000008064C074D06E0E06840F00103D2
:1001300094E8070098471034AC42F6D3FFF7DAFF93
:10014000281600084816000800BFFEE7704770B583
:100150000446A6B2002505E04FF47A7000F006F8D8
:10016000681C85B2B542F7DB70BD000070B5034670
:1001700000224FF0E02675690D4E367803FB06F439
:100180004FF0E026B16910E04FF0E026B0698842F8
:100190000BD0884202D20E1A324402E02E1A0E44CC
:1001A00032440146A24200D300E0EDE700BF70BD3B
:1001B000040000202DE9F847034600240020002514
:1001C0008446002700226EE14FF0010808FA02F48D
:1001D000D1F8008008EA0400A0427DD1DFF8D0A267
:1001E000D1F80480A8EB0A09D0453AD014DCB8F164
:1001F000030F50D009DCB8F1000F31D0B8F1010F76
:100200001CD0B8F1020F49D120E0B8F1110F18D07D
:10021000B8F1120F42D11EE0B9F5881F25D006DCD7
:10022000B9F5803F20D0B9F5801F37D11AE0B9F574
:10023000001F18D0B9F5041F30D117E0D1F80CC059
:100240002DE0D1F80C8008F1040C28E0D1F80C80E6
:1002500008F1080C23E0D1F80C8008F10C0C1EE02A
:1002600000BF00BF00BF00BF00BF00BFD1F80880C3
:10027000B8F1000F02D14FF0040C0BE0D1F8088068
:10028000B8F1010F03D14FF0080C1C6102E04FF0F0
:10029000080C5C6103E04FF0000C00E000BF00BF01
:1002A000FF2801D8984601E003F104084646FF28DC
:1002B00002D84FEA820803E0A2F108084FEA880852
:1002C0004746D6F800804FF00F0909FA07F928EAE7
:1002D00009080CFA07F900E088E048EA0908C6F8BE
:1002E0000080D1F8048008F08058B8F1805F7DD19B
:1002F00000BFDFF8C081D8F8188048F00108DFF8A7
:10030000B491C9F81880C846D8F8188008F00108D8
:10031000CDF8008000BF00BF4FEAB9384FEA92091C
:1003200058F829504FEA82784FEA18794FF00F08B1
:1003300008FA09F825EA0805DFF87C81434502D16F
:100340004FF0000816E0DFF87481434502D14FF00A
:1003500001080FE0DFF86881434502D14FF0020841
:1003600008E0DFF86081434502D14FF0030801E067
:100370004FF004084FEA82794FEA197908FA09F830
:1003800048EA0505DFF840814FEA920948F829500C
:10039000D1F8048008F48038B8F5803F0AD1DFF83E
:1003A0002C81D8F8008048EA0008DFF82091C9F8CD
:1003B000008009E0DFF81481D8F8008028EA0008FE
:1003C000DFF80891C9F80080D1F8048008F40038FB
:1003D000B8F5003F10D1DFF8F48008F10408D8F830
:1003E000008048EA0008DFF8E49000E05AE009F1F4
:1003F0000409C9F800800DE0DFF8D08008F1040896
:10040000D8F8008028EA0008DFF8C09009F1040954
:10041000C9F80080D1F8048008F48018B8F5801F6E
:100420000ED1DFF8A88008F10808D8F8008048EA63
:100430000008DFF8989009F10809C9F800800DE07C
:10044000DFF8888008F10808D8F8008028EA00085A
:10045000DFF8789009F10809C9F80080D1F8048024
:1004600008F40018B8F5001F0ED1DFF8608008F11D
:100470000C08D8F8008048EA0008DFF8509009F12D
:100480000C09C9F800800DE0DFF8408008F10C0885
:10049000D8F8008028EA0008DFF8309009F10C094C
:1004A000C9F80080521C102AFFF48EAEBDE8F88710
:1004B000000011100010024000080140000C014033
:1004C00000100140001401400800014000040140F8
:1004D000C2684A40C26070470AB1016101E00B0482
:1004E0000361704701480068704700000800002061
:1004F00003480068034909780844014908607047C7
:10050000080000201000002010B50848006840F0E6
:10051000100006490860032000F0C2F8002000F037
:1005200007F800F02BF8002010BD0000002002406A
:1005300070B504460E4800784FF47A71B1FBF0F0C4
:100540000C490968B1FBF0F5284600F014FC08B12D
:10055000012070BD102C07D200222146501E00F051
:1005600060F80548046001E00120F2E70020F0E7B0
:1005700010000020000000200C00002008B500BF83
:100580001F48806940F001001D4988610846806964
:1005900000F00100009000BF00BF032000F080F8D1
:1005A000002211466FF00B0000F03BF800221146CC
:1005B0006FF00A0000F035F8002211466FF00900D4
:1005C00000F02FF800221146501F00F02AF80022F8
:1005D0001146101F00F025F800221146901E00F071
:1005E00020F800221146501E00F01BF800BF0549FC
:1005F000486820F0E06040F00070486000BF08BD2F
:10060000001002400000014000BF00F01F02012165
:1006100091404209920002F1E022C2F8001100BFAD
:1006200070472DE9F05F80460D461646002700F022
:100630007FFE074639462A46334601F00700C0F1DF
:10064000070ABAF1040F02D94FF0040A01E0C0F121
:10065000070AD14600F1040ABAF1070F02D24FF09F
:10066000000A01E0A0F1030AD4464FF0010A0AFA99
:1006700009FAAAF1010A0AEA020A0AFA0CFA4FF088
:10068000010B0BFA0CFBABF1010B0BEA030B4AEA73
:100690000B042146404600F053FEBDE8F09F0000E9
:1006A00000BF00F00702064B19684FF6FF03194020
:1006B000044B0B4343EA0221014B196000BF704712
:1006C0000CED00E00000FA0570B504460D4600266A
:1006D0006248006800F00700A8420ED25F48006838
:1006E00020F0070028435D4908600846006800F0D4
:1006F0000700A84201D0012070BD207800F0020060
:10070000022807D15648406820F0F000A16808434D
:1007100053494860207800F0010000285DD06068EF
:10072000012806D14E48006800F4003090B901203D
:10073000E2E76068022806D14948006800F00070CE
:1007400040B90120D8E74648006800F0020008B927
:100750000120D1E74248406820F003006168084367
:100760003F494860FFF7BEFE06466068012810D189
:1007700008E0FFF7B7FE801B41F28831884201D9BB
:100780000320B9E73648406800F00C000428F0D197
:1007900023E06068022810D108E0FFF7A3FE801B69
:1007A00041F28831884201D90320A5E72C484068EE
:1007B00000F00C000828F0D10FE008E0FFF792FEEF
:1007C000801B41F28831884201D9032094E72448F4
:1007D000406800F00C000028F0D12048006800F0CC
:1007E0000700A8420ED91D48006820F007002843E2
:1007F0001A4908600846006800F00700A84201D0C6
:10080000012079E7207800F00400042807D114487B
:10081000406820F4E060E1680843114948602078AE
:1008200000F00800082808D10D48406820F4605006
:10083000216940EAC1000A49486000F01DF80849F2
:100840004968C1F30311074A515CC8400649086072
:100850000020FFF76DFE00204EE700000020024060
:100860000010024010160008000000200148006837
:100870007047000000000020F0B585B00FF26C0C4E
:100880009CE8E01001A8A0E8E0101CA52D680095E8
:1008900000210022002300240020194D696801F086
:1008A0000C05F5B1042D02D0082D19D101E0154831
:1008B00019E001ADC1F38346AC5D01F4803555B15B
:1008C0000F4D6D68C5F340451DF805200D4D65437E
:1008D000B5FBF2F302E00C4D04FB05F3184602E011
:1008E00000BF084800BF00BF05B0F0BD020304050B
:1008F000060708090A0B0C0D0E0F1010010200006C
:100900000010024000127A0000093D00F8B50446CC
:100910000025207800F00100002878D0F8484068D1
:1009200000F00C0004280CD0F548406800F00C00E2
:10093000082811D1F248406800F48030B0F5803FBB
:100940000AD1EF48006800F4003000285FD06068EA
:1009500000285CD10120F8BD00BF6068B0F5803F81
:1009600006D1E748006840F48030E549086028E097
:10097000606858B9E248006820F48030E0490860B7
:100980000846006820F4802008601AE06068B0F52E
:10099000A02F0BD1DA48006840F48020D8490860C5
:1009A0000846006840F4803008600AE0D4480068D7
:1009B00020F48030D24908600846006820F4802086
:1009C000086000BF606888B1FFF78CFD054606E04F
:1009D000FFF788FD401B642801D90320BBE7C84806
:1009E000006800F400300028F2D010E0FFF77AFD34
:1009F000054606E0FFF776FD401B642801D9032079
:100A0000A9E7BF48006800F400300028F2D1207840
:100A100000F00200022857D1B948406800F00C00ED
:100A200050B1B748406800F00C00082818D1B4480D
:100A3000406800F4803098B9B148006800F00200C6
:100A400020B12069012801D0012084E7AC4800686A
:100A500020F0F800616940EAC100A949086033E06C
:100A60002069E8B10120A7490860FFF73BFD054672
:100A700006E0FFF737FD401B022801D903206AE793
:100A80009F48006800F002000028F2D09C480068EF
:100A900020F0F800616940EAC1009949086013E05C
:100AA000002098490860FFF71DFD054606E0FFF7A6
:100AB00019FD401B022801D903204CE7904800682B
:100AC00000F002000028F2D1207800F00800082889
:100AD0002DD1A069B8B101208B490860FFF702FD54
:100AE000054606E0FFF7FEFC401B022801D9032063
:100AF00031E78348406A00F002000028F2D001206C
:100B000000F034FC13E000207F490860FFF7EAFCA6
:100B1000054606E0FFF7E6FC401B022801D903204A
:100B200019E77748406A00F002000028F2D12078E7
:100B300000F00400042873D100267148C06900F059
:100B4000805070B900BF6E48C06940F080506C4959
:100B5000C8610846C06900F08050009000BF00BF27
:100B600001266A48006800F48070B0B967480068E0
:100B700040F4807065490860FFF7B4FC054606E064
:100B8000FFF7B0FC401B642801D90320E3E65F486F
:100B9000006800F480700028F2D000BFE0680128EF
:100BA00006D15748006A40F001005549086227E025
:100BB000E06858B95248006A20F0010050490862C4
:100BC0000846006A20F00400086219E0E068052881
:100BD0000BD14B48006A40F00400494908620846BE
:100BE000006A40F0010008620AE04548006A20F00F
:100BF0000100434908620846006A20F004000862C8
:100C000000BFE068A0B1FFF76DFC054609E0FFF703
:100C100069FC401B41F28831884202D903209AE6E0
:100C200022E03748006A00F002000028EFD012E00E
:100C3000FFF758FC054608E0FFF754FC401B41F263
:100C40008831884201D9032085E62D48006A00F0EA
:100C500002000028F0D1012E05D12948C06920F0FA
:100C600080502749C86100BFE069C8B32448406884
:100C700000F00C00082860D0E069022848D100206C
:100C800020490866FFF72EFC054606E0FFF72AFC20
:100C9000401B022801D903205DE61948006800F0D6
:100CA00000700028F2D1206AB0F5803F07D11448C7
:100CB000406820F40030A168084311494860D4E935
:100CC000080108430E49496821F4741108430C498E
:100CD000486001200B490866FFF704FC054607E061
:100CE0002DE0FFF7FFFB401B022801D9032032E66D
:100CF0000348006800F000700028F2D01FE00000F8
:100D00000010024000004242800442420070004055
:100D100000200C490866FFF7E5FB054606E0FFF7F3
:100D2000E1FB401B022801D9032014E606480068B5
:100D300000F000700028F2D101E001200BE6002055
:100D400009E600000000424200100240042808D1D9
:100D50004FF0E021096941F004014FF0E0221161F8
:100D600007E04FF0E021096921F004014FF0E02293
:100D700011617047704770B504462546681EB0F192
:100D8000807F01D301200FE0681E4FF0E021486111
:100D90000F214FF0FF3000F0D3FA00204FF0E02198
:100DA000886107200861002070BD10B5FFF7E2FFE1
:100DB00010BD70477047024600BF92F83C00012802
:100DC00001D102207047012082F83C0000BF0220C0
:100DD00082F83D001068406820F070001368586089
:100DE000106840680B681843136858601068806882
:100DF00020F0800013689860106880684B68184382
:100E000013689860012082F83D0000BF002082F83E
:100E10003C0000BF00BFD5E710B504460CB9012067
:100E200010BD94F83D0028B9002084F83C0020460D
:100E300000F00CF8022084F83D00211D206800F02D
:100E400035FB012084F83D000020E9E738B5044671
:100E50001A492068884216D100BF1948C06940F07D
:100E600002001749C8610846C06900F002000090FE
:100E700000BF00BF002211461D20FFF7D2FB1D203E
:100E8000FFF7C2FB19E00F492068884215D100BF67
:100E90000B48C06940F004000949C8610846C069B0
:100EA00000F00400009000BF00BF002211461E2089
:100EB000FFF7B7FB1E20FFF7A7FB38BD000400407B
:100EC00000100240000800402DE9F04104460D46A4
:100ED000002600BF94F83C00012802D10220BDE8A2
:100EE000F081012084F83C0000BF022084F83D001E
:100EF0002068866826F0770626F47F46206886609C
:100F0000286850283BD00CDC202860D004DC002866
:100F100053D0102865D155E030285DD0402860D1ED
:100F200041E0602835D070280DD0B0F5805F03D047
:100F3000B0F5005F55D115E02068806820F007000B
:100F4000216888604EE0D5E902136A68206800F0E5
:100F5000E7FA2068866826F0770646F0770620686C
:100F600086603FE0D5E902136A68206800F0D8FA8D
:100F70002068806840F480402168886032E0EA6838
:100F80006968206800F0E2FA5021206800F0D4FA85
:100F900028E0EA686968206800F0EDFA60212068BE
:100FA00000F0CAFA1EE0EA686968206800F0CEFA2C
:100FB0004021206800F0C0FA14E00021206800F011
:100FC000BBFA0FE01021206800F0B6FA0AE02021F9
:100FD000206800F0B1FA05E03021206800F0ACFA9A
:100FE00000E000BF00BF012084F83D0000BF0020EA
:100FF00084F83C0000BF00BF71E7704710B504469D
:1010000020680069C0F34000D8B12068C068C0F310
:101010004000B0B16FF00200216808610120207724
:101020002068806900F0030018B12046FFF7E5FF53
:1010300005E0204600F0ADF8204600F0ABF80020B7
:10104000207720680069C0F38000D8B12068C068AC
:10105000C0F38000B0B16FF0040021680861022085
:1010600020772068806900F4407018B12046FFF7AF
:10107000C4FF05E0204600F08CF8204600F08AF816
:101080000020207720680069C0F3C000D8B1206834
:10109000C068C0F3C000B0B16FF0080021680861FB
:1010A000042020772068C06900F0030018B12046B2
:1010B000FFF7A3FF05E0204600F06BF8204600F0A4
:1010C00069F80020207720680069C0F30010D8B1CB
:1010D0002068C068C0F30010B0B16FF01000216844
:1010E0000861082020772068C06900F4407018B1BA
:1010F0002046FFF782FF05E0204600F04AF8204630
:1011000000F048F8002020772068006900F0010016
:1011100058B12068C06800F0010030B16FF00100E4
:1011200021680861204600F036F820680069C0F3A5
:10113000C01058B12068C068C0F3C01030B16FF063
:101140008000216808612046FFF733FE20680069AF
:10115000C0F3801058B12068C068C0F3801030B16F
:101160006FF0400021680861204600F015F8206803
:101170000069C0F3401058B12068C068C0F3401047
:1011800030B16FF02000216808612046FFF712FEA1
:1011900010BD704770477047704700BFFEE7000002
:1011A00000B585B000BF2248806940F0200020498A
:1011B00088610846806900F02000009000BF00BFF1
:1011C00000BF0846806940F00400886108468069D5
:1011D00000F00400009000BF00BF00BF0846806917
:1011E00040F0080088610846806900F0080000901F
:1011F00000BF00BF00224FF400410E48FFF76CF91A
:101200004FF400400190012002900220049001A9B7
:101210000848FEF7CFFF10200190074802900020F9
:10122000039001A90548FEF7C5FF05B000BD000009
:10123000001002400008014000003210000C014084
:1012400000B587B0154816490860002048600021A5
:1012500013488160C16001618161FFF7DDFD18B154
:10126000BA2110A000F09FF94FF48050039003A919
:101270000B48FFF729FE18B1C0210AA000F093F92E
:1012800000200190029001A90548FFF794FD18B1D4
:10129000C72104A000F087F907B000BD000400409A
:1012A000140000202E2E2F5372632F6D61696E2E55
:1012B0006300000000B587B015481649086000209B
:1012C0004860002113488160C16001618161FFF7BE
:1012D000A3FD18B1DB2110A000F065F94FF4805098
:1012E000039003A90B48FFF7EFFD18B1E1210AA015
:1012F00000F059F900200190029001A90548FFF77C
:101300005AFD18B1E82104A000F04DF907B000BD66
:1013100000080040540000202E2E2F5372632F6DC2
:1013200061696E2E6300000000BFFEE77047000099
:1013300002480068C0F30220704700000CED00E096
:1013400010B5002807DA0A07140E054A00F00F034B
:101350001B1FD45403E00A07130E024A135410BD96
:1013600018ED00E000E400E07047000008B508490F
:101370000968C9084FF47A72B1FBF2F14143009158
:1013800000BF00BF00994A1E00920029F9D108BD94
:1013900000000020704710B5FFF7AAF8FFF705FD21
:1013A00010BD000010B590B0012006900004079019
:1013B0000020089001200A9002200D90C1030E9198
:1013C0004FF4E0110F9106A8FFF7A0FA18B18E2193
:1013D00014A000F0E8F80F200190022002900020F5
:1013E00003904FF48060049000200590022101A832
:1013F000FFF76AF918B19C210AA000F0D4F8FFF7B2
:1014000035FA4FF47A71B0FBF1F42046FFF7B3FCE4
:101410000420FFF79BFC00221146501EFFF701F944
:1014200010B010BD2E2E2F5372632F6D61696E2E7A
:10143000630000001148006840F001000F49086097
:10144000084640680E4908400C4948600846006854
:101450000C490840094908600846006820F48020CB
:1014600008600846406820F4FE0048604FF41F0002
:101470008860C803044908607047000000100240FB
:101480000000FFF8FFFFF6FE08ED00E010B502488F
:10149000FFF7B4FD10BD00001400002010B5024895
:1014A000FFF7ACFD10BD00005400002000220268D0
:1014B000184B984208D0B0F1804F05D0164B984297
:1014C00002D0164B984203D122F070024B681A43A7
:1014D000104B984208D0B0F1804F05D00E4B984287
:1014E00002D00E4B984203D122F44072CB681A43CB
:1014F00022F080024B691A4302608B68C3620B685A
:101500008362044B984201D10B6903630123436159
:1015100070470000002C014000040040000800401B
:1015200030B50C460021816821F47F4142EA032551
:1015300025432943816030BD0A460021816821F09E
:10154000700142F0070319438160704730B50B46C4
:10155000144600210022026A056A25F00105056291
:10156000816921F0F00141EA041122F00A021A43D4
:101570008161026230BD30B50B4614460021002265
:10158000056A25F0100505628169026A21F470413F
:1015900041EA043122F0A00242EA031281610262B0
:1015A00030BD00BFFEE700BFFEE702E008C8121F23
:1015B00008C1002AFAD170477047002001E001C13C
:1015C000121F002AFBD1704710B504460420FFF714
:1015D000BDFB0148047010BD04000020FEF794FF1D
:1015E000FFF7E0FEFFF7DCFDFFF72AFEFFF762FEE4
:1015F0004820FFF7E9FF08E04FF400410348FEF7F9
:1016000067FF4FF4FA70FEF7A2FDF5E7000801400E
:1016100000000000000000000102030406070809A2
:10162000000000000102030448160008000000202A
:1016300014000000AA1500085C1600081400002021
:1016400084040000BA15000800A24A04000000004B
:0C1650000000000010000000010000007D
:04000005080000ED02
:00000001FF
